:020000023000CC
:10AC0000807F002011E1030051E1030053E10300C4
:10AC10000000000000000000000000000000000034
:10AC200000000000000000000000000055E10300EB
:10AC3000000000000000000057E1030059E103009C
:10AC40005BE103005BE103005BE103005BE1030008
:10AC50005BE10300000000005BE103005BE1030037
:10AC60005BE103005BE103005BE103005BE10300E8
:10AC70005BE103002DD203005BE103005BE1030015
:10AC80005BE1030057C503005BE103005BE10300E8
:10AC900021C103005BE1030015D803005BE1030061
:10ACA0005BE103005BE10300000000000000000026
:10ACB0000000000000000000000000000000000094
:10ACC00010B5064C2378002B07D1054B002B02D082
:10ACD000044800E000BF0123237010BD902C002029
:10ACE000000000004CF30300084B10B5002B03D00C
:10ACF0000749084800E000BF07480368002B00D15F
:10AD000010BD064B002BFBD09847F9E70000000070
:10AD1000942C00204CF30300742C00200000000051
:10AD2000164B002B00D1144B9D46402292029A1ADA
:10AD3000924600218B460F461348144A121A00F01F
:10AD400067F80F4B002B00D098470E4B002B00D01C
:10AD500098470020002104000D000D48002802D073
:10AD60000C4800E000BF00F02DF82000290002F0A0
:10AD700095FD00F011F8C04600000800807F00201B
:10AD80000000000000000000902C0020AC380020E3
:10AD90000000000000000000084B10B50400002B6C
:10ADA00002D0002100E000BF054B1868836A002B29
:10ADB00000D09847200000F033F8C04600000000A3
:10ADC000DCEF03000E4B70B500251E000D4CE41A9D
:10ADD000A410A54204D0AB00F35898470135F8E71A
:10ADE00004F0EEF8084B00251E00084CE41AA410ED
:10ADF000A54204D0AB00F35898470135F8E770BD81
:10AE00006C2C00206C2C00206C2C0020702C00205E
:10AE100003008218934202D019700133FAE7704799
:10AE2000FEE7C046F0B503888FB00400112B19D09F
:10AE300002D8102B05D040E0122B37D0502B1FD05A
:10AE40003BE001008288C24B18311A80C1480822B9
:10AE500004F086F80022C04B1A70C04BDB89934285
:10AE60002BD128E00122BA4B52421A800022BA4B61
:10AE70001A7001F071FC00281FD0B84B9B6911E0DB
:10AE8000B64DC188EA89914200D0D1E2038A022BF3
:10AE900000D0CDE2837CDB070DD401F05DFC0028FF
:10AEA0000BD0AB69002B08D0984706E00822811828
:10AEB000A84804F055F802F0EDFB2388142B00D1CC
:10AEC000A5E21AD8102B27D009D8022B01D000F008
:10AED000F4FCA34B0021188802F08EF9A4E2112B98
:10AEE0002ED0132B01D000F0E8FC9D4B8521188853
:10AEF00000231A0002F090F996E2512B37D004D8C3
:10AF0000502B01D000F0D9FC92E2522B00D185E207
:10AF1000552B21D000F0D1FCA0238021914ADB05E4
:10AF2000C90399508021043A89039950A2888C4B17
:10AF30001A8002238C4A11689943116000F0BDFC0D
:10AF400002F0F8F8002801D002F056FC0122844BF0
:10AF500052421A8000F0B1FCA379002B01D000F01E
:10AF6000ACFC7F4B1321188802F00EFC5CE2A67942
:10AF7000002E01D100F0A1FC0AAD10220021280012
:10AF8000FFF746FF022E01D000F097FC774A208998
:10AF90009189884201D000F090FCA37B043B022BF6
:10AFA00001D800F08AFC0121AB792E700B43AB7104
:10AFB000238A08AF2B81638A00216B81230014331D
:10AFC000EB60138A380008220293FFF721FF3E80CE
:10AFD000634E07AB30883A0002997B6002F014F9A7
:10AFE000002811D104AB5B7B04AA127B1B02134324
:10AFF0000122134208D1FE233088FF332900AB80A1
:10B0000002F000F900F059FC0026554B2900188881
:10B01000AE8002F0F7F8B04201D000F04EFC3100F3
:10B020000C222800FFF7F4FE217D481E052800D9D8
:10B03000EBE103F0AFFF0600A401B301B300EA01A6
:10B04000C501638A4A4E0322062B7CD1494B21005D
:10B050009C4662465B88A07D1380E37D16311B020F
:10B0600003431A00237EC9781B04134309061943BE
:10B070000123677D62466F60A9602B709F4202D0FA
:10B080000724022F5ED13C4B1F703B4B1C78012CD8
:10B0900002D0022C13D050E0002950D080235B0056
:10B0A00099424ED80027354B2022390034481F7072
:10B0B000FFF7AEFE334BAA681F639A6342E0032496
:10B0C00000293FD08B0506D02E4B2F485B6D0068C2
:10B0D000CB18834236D1802304245B01994231D8B6
:10B0E000264B24191B78002B2CD0264B264D586D4F
:10B0F0002D680F18AF4225D8DC6C59649C6403247A
:10B10000186518631379214D01332340137100230F
:10B11000D3802B681E4A01332B601E4B023CC9189A
:10B120001D4B890A1B68C01801F0E5FB002809D0F7
:10B130002B680434013B2B6004E0052402E0032467
:10B1400000E0042422000121300002F0EBFDB4E312
:10B150000A350020DC34002008350020EC340020C3
:10B16000682C00200C0500003C3800209838002096
:10B17000A4380020AC2C0020602C00205036002089
:10B1800088310020503100204C3600203838002013
:10B190004DDC0300FF030000AC32002003232B70C2
:10B1A000C04B1E78012E02D0022E56D0E3E0BE4CDA
:10B1B000E26BA36B02949A4200D0DAE0BB4B1B789F
:10B1C000002B01D00126D7E002F03DFB012800D082
:10B1D000D1E0B74B1A00743212781800002A37D029
:10B1E0007A331A780523002A00D10DE3B14F3A686B
:10B1F0007968002A00D101E3002900D1FEE20300B2
:10B20000DB331B78002B05D00300DC331B78002BCD
:10B2100000D0F3E2030084331B78002B00D1EDE271
:10B22000030088331B68332B00D0E7E28C300378AF
:10B230009F4D9C460023634500DBDFE298009E4C57
:10B24000903024882858A04200D121E20133F2E74F
:10B250001B78002B00D18EE0D0E2934C0826226DA3
:10B26000636D616CD31A994200D085E00020A36C15
:10B2700060646265E36401F073FC002877D18F4F4E
:10B28000226D3B689A429DD18D4B1B68002B02D0EA
:10B2900001F02AF9F8E7864D0A262B00B9331B780E
:10B2A000032B16D1834E874B39683360202373609C
:10B2B000854B186801F07CFD33000126002800D082
:10B2C000093620228149186803F03BFE002800D08F
:10B2D00005266369002B03D0012B48D17C4B00E08D
:10B2E0007C4B012E2ED12A00A1321078032816D8CB
:10B2F00003F046FE02050B0E01229A6017E0A5221C
:10B30000A4359A602A68626318E0AA229A6012E063
:10B31000AC229A602A00A432126862630BE0002813
:10B3200004D002380A26012808D804E00A26043589
:10B33000EA6FA26002E00435EA6FE260A26C5A6034
:10B340003A6802E000229A605A601A6000212022C6
:10B350006148FFF75DFDB222FF216048FFF758FD0D
:10B3600000235F48236301F0FBFB002804D00A267A
:10B3700002E0082600E005263200042125E0638A69
:10B3800058480322032B07D1A37D627D1B02134380
:10B39000554A5380138001220221D6E604232B70E4
:10B3A000404B50481B78012B06D0022B00D055E2B1
:10B3B0003D4B196D9A6C29E23B4BD96B1A6C25E217
:10B3C000638A022B03D0032206214648BDE60622EB
:10B3D000637D2A706B60012B02D00722022BF3D110
:10B3E000304A13702F4B1B78012B08D0022B00D052
:10B3F00061E280212C4B49019C6C1A6D31E2802165
:10B40000294B49001C6CDA6B2BE20322DDE7002399
:10B41000A0881A00190001F0FDFE05E00023A088B5
:10B420001A00190001F0ECFE002800D145E28BE57E
:10B430002E4BE2889B889A4200D03EE20AAE0C2254
:10B4400000213000FFF7E4FC0223337023001233A5
:10B4500004937360238A0393B360124B1B78012B10
:10B4600002D0022B46D0FDE00F4D039BEC6BAA6B84
:10B470001B19934202D92B6C0293F6E02C19200081
:10B48000039A04995C3003F06BFDB368EA6B190012
:10B490009C187068164AEC6300F0D4FD0290286492
:10B4A000E3E0C046602C00205031002050360020E0
:10B4B00020350020483100200C3000004C360020A0
:10B4C000383800208C340020AC320020DB350020DE
:10B4D000743100206831002088310020AC31002018
:10B4E000E1E00300A4380020AC2C002098380020B4
:10B4F00090310020C74DAB6C2C6D0293C64B1B786E
:10B50000002B00D1B1E0039B1A0080235B009A421C
:10B5100000D9AAE013196A6D05939B1A6A6C9342CD
:10B5200000D9A2E0BD4A0399049800F08BFD059B69
:10B53000BB4F0290A8642B65F888039BC2183B7927
:10B54000FF2A0DD81B021818B64B039A1818049935
:10B5500003F006FDFB88B268059CD318FB804CE025
:10B5600080221B025200141A1818AE4BA4B22200FB
:10B570001818049903F0F4FCB368FA881B1BB36035
:10B580007368A2181C19A84B74601868A74C2B6B21
:10B5900039791818236892B201332360A14BFA80DD
:10B5A0000902033259189210A14B01F047FA002802
:10B5B00005D12A6BFB88059CD3182B6307E0236811
:10B5C000013B2360EB6C6C6D0293AB642C65032232
:10B5D000934D2B79013313400022EA800C9A2B7192
:10B5E000002A0AD028001B025030C0180B9903F023
:10B5F000B7FCEB880C9AD318EB80894FFA88002AA5
:10B6000033D0844D6B6D296BD31A686C5B18834201
:10B610002BD3854B854E1868336808180133336087
:10B620003B00397950330332090259189210804B8C
:10B6300001F004FA002804D12A6BFB88D3182B638D
:10B6400007E033686C6D013B3360EB6C2C65029353
:10B65000AB640321724B1A7901320A401A7100223D
:10B66000DA8002E000231C0002936D4D6E88002EEC
:10B6700000D122E12B88013B9BB22B80002B00D014
:10B680001BE1029A21006B4802F020FB2E8014E19E
:10B690002B00A1331B78032B00D9AFE0180003F077
:10B6A0006FFC021F0B0B2B007C331B78002B00D18F
:10B6B000A4E0029B9C680DE028007C300078002804
:10B6C00000D19BE00298C468002B03D0981E01288B
:10B6D0000FD809E02B1DDB6F9C4200D98EE008E0FB
:10B6E000981E012805D800242B1DDB6F9C4200D337
:10B6F00084E02B00E8331B78002B00D07EE04E4B1B
:10B7000010003B6020237B6001F052FB002875D1C4
:10B710004A4B4B491A784B48414C03F021FC494BAA
:10B72000A364464B1B78E364402B65D13B687F687C
:10B730000293002B60D003241C405DD103F0A8FAD3
:10B74000404B00903A0002993F4803F0A5FA0028C8
:10B7500052D02A003D4BA1321C6010781C000328F7
:10B760004CD83B4B1A0003F00BFC0217081FB032F9
:10B770001278B433002A41D013E0A8321278002A9C
:10B780003CD0AC331A682260FF2332499B025B1A1B
:10B790009A4220D9042337E0A2321278002A2DD011
:10B7A000A4331B68236016E0A8321278002A25D043
:10B7B0001A00A2321278002A20D01A00AC33A43228
:10B7C00011681A688B182360002901D103231BE03C
:10B7D000002AFBD0D8E720221F49174803F0C0FBFE
:10B7E00020680028F2D000F0E9FF0028D2D101F053
:10B7F000B7F9002802D103E0052305E00A2303E09E
:10B800000122054B1A70B7E51E00B5E502F05EFA9D
:10B8100053E0C046503100205036002098310020BF
:10B82000AC2C0020FC2C0020AC320020383800204A
:10B830004DDC0300A43800208C34002009360020A1
:10B840000A360020B42C0020E0EF03004C36002024
:10B850002035002000AC0300DB3500200522032149
:10B8600073E4174B1888174B984226D00125164BC6
:10B870001B682B4221D0154B60269D700025090ABC
:10B880001971110ADA711972110C120E9A72220AC8
:10B890001A731E70220C5A3EDC72240E5A735E70AC
:10B8A000DD705D719D7159729C73094B0F229989EE
:10B8B00001F025FC01E0052286E50FB0F0BDC04691
:10B8C000682C0020FFFF00003C380020403800209A
:10B8D0009838002010B54468A3184360002300295D
:10B8E00005D09A4203D0E05CC8540133F9E7012047
:10B8F00010BD094B5A6E013A5A66002A04D1022043
:10B9000006490A7882430A701A6E0132042A00D16D
:10B9100000221A667047C046B0320020183300205B
:10B9200028DF704729DF704730B5040085B00D006F
:10B93000102200216846FFF76BFA237A012B0BD007
:10B94000022B10D101236A4669461370A289E3894C
:10B950004A81D31A0B8106E000236A4613702369DB
:10B960000293A38A93816368290001932368684640
:10B970009B68984705B030BD70B51B4A536E1500E3
:10B98000002B2FD01824136E5C43A418227A012AAE
:10B9900005D0022A22D1A089FFF7C2FF12E0A28AB5
:10B9A000E08A121AFF2A01DC92B201E080225200E2
:10B9B00018214B43EB18D9681B6980000918181827
:10B9C000FFF7B0FF112807D10221084A13788B43F3
:10B9D00049180B43137005E0002803D0092120000B
:10B9E000FFF7A2FF70BDC046B03200201833002020
:10B9F0000100022070B5294A137803423FD0182372
:10BA0000274A166E150073439818022902D003299D
:10BA100027D03FE00021234B1970037A012B02D07D
:10BA2000022B13D036E0848AC18A621A93B2FF2AAD
:10BA300001DD80235B00CB1818210A0072439BB202
:10BA4000AA18D38200219C4224D113E08389028A60
:10BA500001338381C38901339BB2C3819A4219D1D7
:10BA600008E0104A13780133DBB2032B11D900230D
:10BA700008211370FFF758FFFFF73BFF0AE004218E
:10BA80000B4207D08B4306491370496E002901D041
:10BA900003431370FFF770FF70BDC04618330020DA
:10BAA000B0320020FC300020002210B50B684C683A
:10BAB0009B68C4600360436082609A78A218032484
:10BAC00002611C57121942614A6802610A000C3275
:10BAD00042613F225B789343802B01D104310161A5
:10BAE00010BDF0B5002405000E0087B0039401944A
:10BAF000AB68002B25D004ABDF1D012239002800E4
:10BB00002B689847029000281BD07F20AB683F78B5
:10BB1000013BAB603840019A002103F045FA039BDA
:10BB20007FB20B430393019B044307330193002F20
:10BB300003DA019B462BDBD103E0039B3460736087
:10BB400001E000230293029807B0F0BDF0B58368CE
:10BB500085B004000091002B30D002ABDD1D012226
:10BB6000290003689847071E28D0A3682D78013B59
:10BB7000A3606BB2002B1EDA7F2307261D400193C2
:10BB8000A368002B1AD002ABD91D01222000236824
:10BB90009847002812D0A368019A013BA36002AB2A
:10BBA000DB791A40B2405BB215430736002B02DA4C
:10BBB000232EE5D102E0009B1D6000E00027380045
:10BBC00005B0F0BDF7B50D0001A90400FFF7BEFFF9
:10BBD000002801D100200DE02B002200C2CAC2C300
:10BBE00012681A60019BAA689A42F3D3AB60A268FC
:10BBF000D31AA360FEBD30B5040085B0150000293E
:10BC000014D1124B02689A4210D0102D08D910227C
:10BC100069462000FFF7EFFF002815D0103DF4E73C
:10BC20002A0069462000FFF7E6FF0DE0A3689D4269
:10BC300001D9002008E02A00200023689847002846
:10BC4000F7D0A3685D1BA56005B030BDD5B8030073
:10BC500037B50400052921D8080003F091F9060F33
:10BC6000111F1F1D2B787F2B19D901AD012229002F
:10BC70002000FFF7C0FF0028F4D110E0082206E002
:10BC800001A92000FFF762FF002808D0019A0021D7
:10BC90002000FFF7B0FF02E00422F8E700203EBDDD
:10BCA000F0B5536805005F789C4638003F238BB0A1
:10BCB0001400984302D0402866D0BBE00F225F4BAF
:10BCC0003A409600F65830233B40102B0BD005D855
:10BCD000002B00D0AEE02269614609E0202B0AD09B
:10BCE000302B3FD0A6E0012362691370226961689E
:10BCF0002800B0479FE06769022925D1042A23D88C
:10BD000006A92800FFF75EFF002800D192E0089BFB
:10BD10000093002B10D061683A784B7993420BD98D
:10BD20000B7906A85A4323699A18B047002804D013
:10BD30003B7801333B70EAE70120079B00936B607F
:10BD4000089B002B77D075E062463B785279002043
:10BD50009A4270D962461279581C5343216938704F
:10BD6000CA18C4E7634661691B780B70072ABDD106
:10BD7000636801001A792069FFF74AF8636821694E
:10BD8000986801F088FBB1E717693B1D00933B6899
:10BD9000002B03D12800FFF75BFF4CE0022913D1F1
:10BDA00006A92800FFF70EFF002843D0009A61681B
:10BDB00006A83B68984700283CD0089B0193002BBD
:10BDC000F4D1079B6B6036E001291ED0002915D005
:10BDD00005292FD1042203A92800FFF70CFF042610
:10BDE00019E0012219002800FFF705FF002821D0E3
:10BDF000019B31001B785BB2002B0EDA03AB5B18A2
:10BE00004E1C01930B2EECD114E0082203A928004C
:10BE1000FFF7F1FE082600280DD0094B089606937F
:10BE200003AB0793002309933B68009A616806A857
:10BE3000984700E000200BB0F0BDC04620F00300A2
:10BE4000D5B8030070B50300426800201178814224
:10BE50003FD011000C315960117B81420BD1196820
:10BE6000986059608A78DC68A2181A61C97849B26A
:10BE700052185A612DE03024557811792C40302C1D
:10BE800009D1567B3440302C05D191781C69611A58
:10BE9000196101000CE00F202C008443202C02D1FA
:10BEA0005079414304E03F208543802D00D1042197
:10BEB00030205478044202D1986801309860907B19
:10BEC00041181869411801201961D27B52B28918B2
:10BED000596170BDF0B50024CDB00B781A064B78CF
:10BEE0001B041343CA7813438A78043112021343A4
:10BEF0000CAAA3500434402CEFD1112713260DAA0D
:10BF0000516B13680C00FC41A4460C006546F441DB
:10BF1000890A6C404C40111F156A0968043249199E
:10BF2000611807251C00EC41A4461C000B35EC41B0
:10BF30006546DB086C405C40091991633DAB934258
:10BF4000DED1036D00260293436D02990393836D46
:10BF5000039D0493C36D0593059A036E0B92049A97
:10BF600006939446436E0793836E0893C36E0993BA
:10BF70000A93089B0193079B0093069B0B221C00CE
:10BF80000627D4411A00FA4162401C001337FC41D5
:10BF900054402B4A0CAF2432F759B2580436D21908
:10BFA000A218009F019C1F409C437C4014190A9AD0
:10BFB0000F00A2180A920D220224D7410A00E24182
:10BFC0000C0057401622D44162466A400A4067403E
:10BFD000140062462A406240BF180A9C0B9AA218BD
:10BFE000E41967460B97019F0A9780277F00BE429E
:10BFF00007D0009FAC4600930D000197130021006D
:10C00000BCE7029E34190465039C611841650499DC
:10C010004D19059985656144C16506998A180266BE
:10C02000079AD318009A43669446089B019A634482
:10C0300094468366099B6344C3664DB0F0BDC04619
:10C0400020F0030030B5002A02D01368DB4301E082
:10C0500001235B420124411881420CD002785340F5
:10C0600008225D08234000D0044B013A6B40002AAF
:10C07000F7D10130F0E7D84330BDC0462083B8ED9A
:10C0800010B5094A5368002B0BD0002809D1EFF3F3
:10C09000108372B6054914680C605060002B00D103
:10C0A00062B6002010BDC0461831002000E100E05B
:10C0B00030B5094A54789378611CC9B28B4200D1DB
:10C0C0000021157800238D4204D01833634301709A
:10C0D0005068C318180030BD2031002080220C4B5E
:10C0E000920270B5DA678023D2220125094C5B02E7
:10C0F0009200A350403AA350656000F017FBA56082
:10C100000024054B1C6000F011FB044B5C7070BDFB
:10C1100004E100E000100140D8360020FC3000208F
:10C12000F0B5B04CB04A2368B04985B0019315789A
:10C130000B780022AE489D4211D00133DBB2022BB6
:10C1400001D00B7000E00A700B789B00C3185A688E
:10C15000019B9B181B021B0A2360012300E01300B4
:10C16000A44DA54C2D68007B0395002521780290F5
:10C1700000940098407888422DD01820009C4843B5
:10C18000666801313018A678C9B28E4200D100210C
:10C190000678022E06D0032EEBD1002695483700F4
:10C1A00000680DE040688446924806683000370019
:10C1B0000028DED0844500D1FCE00700C069F7E725
:10C1C000002803D007740126C069F9E7002ED0D0FB
:10C1D000884E3060CDE7002D03D068468449007A50
:10C1E0000873844C002B03D000231D001E0016E0B2
:10C1F00022680399501A421E9041C0B218E0121AE8
:10C200002D18CF68C8690E602060002F07D0CB6161
:10C210000B0001988F6040190002000A48602168F5
:10C22000002904D008689042E9D9821A0A600120E6
:10C230002268714D01926E4A127B0292002B02D04D
:10C240001A00DB6921E02A78697891425BD01821D5
:10C2500051436C6801326118AC78D2B22A709442B2
:10C2600000D12B700A78012AEDD14A68147C002C89
:10C27000E9D18E685660CE6896600E69D6604969CD
:10C2800091610299002900D05460564957680968A5
:10C2900096687C1A009159492402240A8C4202D8DB
:10C2A000341914600AE00099C91B0902090AB14255
:10C2B00002D2761A166001E00021116000210124EB
:10C2C0004C4F51609160D16139681474002907D0D6
:10C2D00014680E688C46B4420AD8341B0C60D161D5
:10C2E0003A60ABE7A41BCE698C46002E07D0310024
:10C2F0000E68A642F6D3361B0E600E00614614602F
:10C30000D661CA619AE73B4B019A1B689A4201D1F8
:10C3100000284AD0002B46D01B68394A0293394C7A
:10C32000304BA5581B68324E0093EB1A1B021B0AB8
:10C330000333019373780392002B12D18023C13A07
:10C340005B02FF3AA350403AA350C021802201274C
:10C350002D4B920249005A501A60276000F0E6F90E
:10C360007770029B019A934200D21300A821009A91
:10C37000C9009B181B021B0A6350039A2148A2584C
:10C38000521B1202120A5D1B2D0203322D0AAA4211
:10C390000BD91B4BC358435000F0C8F980221B4BEC
:10C3A00092025A6001E0FFF799FE0022104B1A73C7
:10C3B00005B0F0BDB8420BD1F6690E4C2660002ED8
:10C3C00006D101240F4DAC60064D02942E6025006D
:10C3D0000668C069F861002800D1CAE60468A61999
:10C3E0000660C6E6D8360020D5360020D4360020B8
:10C3F000FC300020D036002020310020FEFF7F00DE
:10C40000040500000010014000E100E0FCE100E054
:10C41000F0B5002485B002ABDD1D009028000E00B1
:10C4200001922C7000F064F91F4B20491B78098899
:10C43000DBB29C461E4B20001A78D2B28A4201D24F
:10C440000132D0B21B4F3C00844508D01C781A78CA
:10C450000020D2B2914201D90132D0B218702878AE
:10C46000FFF70EFE0420BC421BD0134F019A3B681D
:10C47000E5005B191A60009A002A10D0002E0ED039
:10C480000E4B320018880E4B44431868009900196F
:10C4900002F066FD3B6800205D19AE8001E00020DF
:10C4A000988005B0F0BDC0463538002036380020F1
:10C4B00034380020FFFF0000DC3600208A340020E2
:10C4C0003038002007B5064B00901B8801910920E9
:10C4D000072B04D9034A08216846FFF799FF0EBDD0
:10C4E0008A34002045C5030010B5104C104B22784B
:10C4F0001B789A4219D020780E4AC0B21268C30045
:10C50000D3180D4A998812881B6850430B4A126849
:10C51000101898470A4A23781188DBB20022994202
:10C5200001D90133DAB22270DFE710BD35380020BF
:10C5300034380020DC3600208A34002030380020D7
:10C540003638002010B5082901D001F055F90368EC
:10C550004068984710BD70B50024234B5C649C6410
:10C56000DC641C655C609C60204B1B68A34239D076
:10C570001F49204A8A5820490D68551B2D022D0A53
:10C580001A68AA4219D8AD1AA4181A7CDE69002AC2
:10C590000FD000221A74194A1268002A06D099692D
:10C5A00058699047002804D001F026F95A69986923
:10C5B0009047002E01D03300E2E7114B114A197861
:10C5C00013788B4205D10133DBB2022B00D100235B
:10C5D000137013780C4A9B00D31880225C600B4BBD
:10C5E00052035A6070BDC046FC100140D036002096
:10C5F0000010014004050000D83600205436002009
:10C60000D4360020D5360020FC300020FCE100E0CC
:10C6100070B50B4C0500626E0020042A0FD0236E0B
:10C62000D318032B00D9043B01326266182253430E
:10C63000E41800212000FEF7EBFB01202C6070BD08
:10C64000B0320020062110B5044A13780B4204D101
:10C6500004390B431370FFF78FF910BD1833002016
:10C6600010B5044B002900D119705B68002B00D075
:10C67000984710BD0C31002070B5094A0124936819
:10C680001D00A543002902D10324A34301E0022396
:10C690002B4393604368002B00D0984770BDC04681
:10C6A0000C310020F0B50300186880F30888586842
:10C6B000FF2464B2EFF30585002D01D1A6460047A3
:10C6C000251C061C21273FBAF0B4002400250026B3
:10C6D0000027F0B4F92040B20047C046F0BD002169
:10C6E00010B5024A0800FFF793FE10BD91CD03007C
:10C6F00070B5EFF3108672B6094B01221969002953
:10C7000008D1084C1A61E26F074D2A40DA60E567EC
:10C71000017000E00270002E00D162B6002070BDF2
:10C720000C31002004E100E0FC06FFBC084B094985
:10C730001A682F23C046C046C046C046C046C04601
:10C74000C046C0468A4200D0C046013BF2D1704785
:10C75000642C00200024F400F7B5164D0820AB69C6
:10C76000002B26D02B6B002B23D02B0000272C3343
:10C770001F706B46DE1D30003770FFF7B9FF6B4648
:10C78000981DFFF795FC0424B84208D002230370DB
:10C790002B001C3343606B463C009B796B753078F3
:10C7A000FFF76EFC002C03D18022034B52035A602A
:10C7B0002000FEBD0C310020FCE100E0F8B5174B75
:10C7C00005001C68164B04201968164BC918091B74
:10C7D000A94222D31448154E476E3462012F11D15D
:10C7E000C36D134A9A18920A9302C91A00228D4205
:10C7F00002D94765826508E0E318426587653362C0
:10C80000683003E00023436583655C3004000C223C
:10C810000021FEF7FDFA00202560F8BD0830000079
:10C820001410001000F4FFFF0C3100208C320020A7
:10C83000FF03000010B50A4B00205A6E012A0DD1EB
:10C840001C6E1000002C09D0D96D064B0022186810
:10C85000FFF7F8FB201A44426041C0B210BDC04649
:10C860000C3100200830000010B50C220021FEF72A
:10C87000CFFA0022024B5A679A675A659A6510BD33
:10C880000C31002000280FD0084B094A1B68C04615
:10C89000C046C046C046C046C046C046C046934299
:10C8A00000D0C0460138F2D17047C046642C002049
:10C8B0000024F40010B5064C88342368042B05D1FD
:10C8C0000448FFF7DFFFFFF70FFEF6E710BDC04695
:10C8D0008C320020A086010018DF70471FB510229F
:10C8E00000216846FEF794FA022368460093FFF79A
:10C8F000F3FF05B000BDF0B587B000920422484EAA
:10C900000500B36813421AD002240A20234200D043
:10C9100084E009380343B360424B1B7B034208D0D9
:10C92000414B42481F1E874202D34148834248D3AD
:10C9300020000123B2689A431300B3606EE08022A6
:10C94000830A9BB2D20001930E0003009446022496
:10C95000384A39481450604614588020C000002CD2
:10C96000F9D0A124334FE4003B511458002CFCD0E3
:10C97000002731482F4C2750604610580028FBD024
:10C980008022013ED2009B18002EE0D1009889023F
:10C990006D18002842D01022310002A8FEF738FAA4
:10C9A000012302AA1370009BAD0A039313006A4689
:10C9B000928818001A815D813100009B98473000F1
:10C9C0002CE00320002DB4D0AB050620002BB0D105
:10C9D0003B6801389D42ACD38BB29B027C68EB185C
:10C9E0009C42A6D38CB21000002CA2D002A8FFF764
:10C9F0000FFE03000720002B9BD0029B009A1F60B4
:10CA00005A600222029BAD0A1A729D811C82FFF7B6
:10CA100019FE0123B268002013438EE707B0F0BD72
:10CA20000C3100200C330020782C0020782C0020C2
:10CA3000882C002000E0014004050000F0B589B01A
:10CA4000019304233F4D0291A96804000B402F007D
:10CA5000002B14D002230A20194270D10938014357
:10CA6000A9603949097B014269D038491800384B1F
:10CA70000E1E9E4263D3374B994260D22DE00120B7
:10CA800080253549354FED00C85148590028FCD064
:10CA900080269500F6008020C000AB4208D00298A6
:10CAA000C0580390E05088590028FCD00433F2E7C6
:10CAB0000023CB510B58002BFCD000250198A84235
:10CAC0003DD004AB1D7004AB05909A81180006940C
:10CAD0002900019B9847280031E0032302991800A0
:10CAE00000292CD0002C2AD002990620214319427B
:10CAF00025D1336801389C4221D393B29B007168E1
:10CB0000E31899421BD395B20138002D17D004A821
:10CB1000FFF77EFD03000720002B10D0049B019A35
:10CB20001E6001265A60049B029A1E72DA601C6124
:10CB30009D82FFF787FD0020BB681E43BE6009B0E1
:10CB4000F0BDC0460C3100200C330020782C0020B2
:10CB5000782C0020882C002000E001400405000013
:10CB6000F8B505001D4C2378002B05D01C48FFF7B5
:10CB700089FEFFF7B9FCF5E7013323706560FFF725
:10CB800099FE184D002201212800FFF7B4FE021E75
:10CB9000072AF4D0002803D00023032023701CE0D0
:10CBA000200058214830FFF74DFA0F4F26006064EF
:10CBB000AE223800443610305200310002F0D0F975
:10CBC000FFF778FE3900094B103157222800FFF794
:10CBD00035FF0728F4D00028DED1F8BD0C31002045
:10CBE000A086010000FC03000C33002061C6030096
:10CBF0008022F0B5214E5201736F87B09A182049F8
:10CC00000092B26F1F185418E41AA40AA402A508CF
:10CC10006D18AD0AAD02002A02D0002093422AD03E
:10CC2000AB08019301230293009B02A80493019B8C
:10CC300003970593FFF750FE00281CD103230293AE
:10CC4000009B02A80393019B04970593FFF744FE02
:10CC5000002810D1009B7F195B190093A54201D8D1
:10CC6000641B00E00400B36F00201B1B7367FFF719
:10CC700077FF002CD6D107B0F0BDC0460C310020A4
:10CC8000FF030000F0B5134B85B09C6F0B682518AF
:10CC90001C1B03230093104BA40868460E0001934D
:10CCA00002950394FFF718FE071E06D13000FFF728
:10CCB000DBFD3800FFF754FF09E010220021684631
:10CCC000FEF7A6F8684601950294FFF705FE05B049
:10CCD000F0BDC0460C31002000AC030013DF7047EC
:10CCE0000122064B524210B5DA670400FFF7F6FF47
:10CCF000002802D12000FFF7D5FC10BD04E100E0C0
:10CD0000F7B5224BDD6E1C6F6A42554162425441B9
:10CD10001E00EDB2E4B2002D35D1330074331B7820
:10CD2000002B32D101A800F043FC052807D00028D1
:10CD300001D000F061FD0198F36E984700E00125F5
:10CD4000002C1DD1330074331B78002B1DD16B4692
:10CD5000991C3300B76F76331B8838000B8000F0C6
:10CD600021FC041E052C05D00028E2D13800336FC9
:10CD7000984700E00124002DCFD0002CCBD004E058
:10CD8000002DCAD001E0002CDCD0F7BD0C3400200F
:10CD900010B5002901D000F02FFD044B7C331B7827
:10CDA000002B01D0FFF7ACFF10BDC0460C340020B3
:10CDB0000023F0B59FB01293002200231492159324
:10CDC000544B1693544B1793544B1893544B19933D
:10CDD000544B1A93544B1B93544B1C93544B1D931D
:10CDE000002901D0002821D0802604000027451802
:10CDF000B600AC4216D0129B227802A9CA54013365
:10CE00001293402B0CD10800FFF764F8149A159B7D
:10CE10000092019392197B4114921593002312936F
:10CE20000134E6E7434DEC6B002C01D10E206EE09F
:10CE30008021129A02A8531C8154372A06D8002256
:10CE4000382B12D002A9CA540133F9E7002202A9F3
:10CE50003F2B02D8CA540133F9E70800FFF73AF82C
:10CE60003822002102A8FDF7D3FF129902AE4B0F22
:10CE7000CA001498159912184B41009001913F2156
:10CE800002A809180A703E21100A891908703D216C
:10CE9000100C8919087014921593110E11AA1170B3
:10CEA0003B213A2089190B708019190A0170392029
:10CEB000190C801901701A0E300010AB31001A7075
:10CEC000FFF708F8230058070434C01A1D99C21848
:10CED000D200D14019701C990133D140D9701B99EF
:10CEE000D140D9711A99D140D9721999D140D973C9
:10CEF0001899D140D9741799D140D97516990091D4
:10CF0000D140D9769C42E1D1202300202B641FB070
:10CF1000F0BDC04667E6096A85AE67BB72F36E3C3A
:10CF20003AF54FA57F520E518C68059BABD9831FF4
:10CF300019CDE05B0C310020A6DF70477DDF704724
:10CF400073DF704772DF704713B51400694608221B
:10CF5000FEF751FE002803D0009A019B2260636017
:10CF600016BD13B5140001A90422FEF744FE0028E3
:10CF700001D0019B236016BDF7B50F0001A9060083
:10CF80001500FEF7E3FD041E13D0019A0024511C86
:10CF90008A420ED83F207B788343802B09D03B798F
:10CFA000994206D829003000FEF725FE019BEC547B
:10CFB00004002000FEBDF7B50E0001A90500140015
:10CFC000FEF7C4FD002813D0019A0020FF2A0FD8D5
:10CFD000511C8A420CD83F277378BB43802B07D063
:10CFE0003379994204D82270611C2800FEF703FEB1
:10CFF000FEBDF7B50D0069461400FEF772FD061E72
:10D0000027D0019B009FDA0779085B081143FF07CF
:10D0100001D5C943DB43002E1BD02D79082D01D14A
:10D020000AC416E0042D03D121600A00C8170AE0E3
:10D03000022D02D10AB2228004E00020012D08D185
:10D040004AB22270D01758404A40024350425041E1
:10D05000C0B2FEBD37B50D0069461400FEF741FDB4
:10D06000002821D02B79082B04D1009B0198236044
:10D07000606011E0042B02D1009B236004E0022BCE
:10D0800004D1009B23809BB2002005E00020012BEF
:10D090000AD1009B2370DBB2009A5340019A5040A2
:10D0A000184343425841C0B23EBD37B50D006946F2
:10D0B0001400FEF716FD002820D02B79082B04D190
:10D0C000009A019B2260636018E00099CA17042B44
:10D0D00003D121600B0010000AE0022B02D10BB239
:10D0E000238004E00020012B08D14BB22370D81715
:10D0F00042404B40134358425841C0B23EBDF0B588
:10D1000087B06B4602AC06000F00DA8000211022C7
:10D1100020009D1DFDF77CFE0123A370044B210020
:10D1200030002780A560E360FFF706FF07B0F0BD81
:10D1300040380020F0B5022300242D4F8DB039680F
:10D140001940A14251D106AE18223000FDF760FE11
:10D150006A460B2301AD5380093B2B7001236B7092
:10D160000533AB70033BEB70013B2B710D20592352
:10D17000911C6B716844A533AB71FFF7DFFE041E91
:10D1800016D16B4659880B2906D84B1CEB71092325
:10D19000C9182B7289B204E00C231421EB71043BF3
:10D1A0002B720023C9B21A002800FFF7CBFE04003F
:10D1B000002C1AD12823300034707460347233820A
:10D1C0007482FFF7BDFE00280ED1A0238021094AFA
:10D1D000DB05890399508021043AC9039950022341
:10D1E0003A6813433B6000E0040020000DB0F0BD3E
:10D1F0003C3800200C05000067DF704763DF704794
:10D20000A9DF7047A8DF7047A5DF7047A2DF70472E
:10D21000A0DF704786DF70477FDF70477CDF704795
:10D2200074DF704771DF704770DF7047F0B585B00D
:10D2300002AB9E1D002330003370FFF759FA284BD4
:10D240001C78E4B2002C46D1264B1A68002A42D042
:10D25000C221254A890051580092CA073BD51C605B
:10D26000A123009ADB00D358019302ABDF1D3800E5
:10D270003C70FFF73DFA1D4D6A681F2A00D8541C08
:10D280002968231E6C608B4204D10021202C00D021
:10D29000611C296069460979AA1811732A689342AA
:10D2A00001D39B1A01E09B1A2133AA689A4200D24B
:10D2B000AB603878FEF7E4FE6A6800231F2A00D8C6
:10D2C000531C2A689A4206D1C22201230099920077
:10D2D0008B50074A13603078FEF7D2FE05B0F0BDE0
:10D2E0008834002000D1004000D00040AC34002041
:10D2F00004D000400023F0B593B009920493059345
:10D300000691079108930400887812180A92C97848
:10D31000029349B252180B92A368002B46D00CA975
:10D320002000FEF713FC002803D1A368002B3DD09A
:10D3300034E00C9D002D39D00723EF08079E1D40D7
:10D340000195079B1A7897422AD006A8FEF77AFD26
:10D35000079B9E42F5D1029BBB4200D982E00F2180
:10D36000079A53780B40082B6ED113780293BB4277
:10D3700078D8A36803930A9B1E68A368002E6DD01B
:10D38000039A9A426AD133681A68151E6FD0019BBE
:10D390003A0031002000A847002878D1002078E02A
:10D3A0000F225B781A40082ACFD02AE0079B06A8F4
:10D3B0000193089C5D78FEF745FD0028F6D13023E7
:10D3C0001D4204D1079B1B785A1E9341E41801208B
:10D3D000002C5ED0002361099A008B4205D004A87E
:10D3E00082580132DAD10133F6E71F2304A91C4029
:10D3F0008A5801331C1B213BE34001209A42CDD1C6
:10D4000047E0302213420ED108993F290BD81F2242
:10D410004B0911401E3A8A409B0004A9C9580A438F
:10D42000039104A9CA50E668002E04D006AB019A05
:10D4300039002000B04706AA01992000FEF730FC11
:10D44000002800D068E7A9E706A8FEF7FBFC079BC9
:10D450009E4284D101235B42029303E0039A9A42E5
:10D4600000D059E701992000FEF7F2FBE8E79B683E
:10D470001B789F420BD131000CA8FEF715FB01234E
:10D480000CAA337301992000FEF70AFC84E7B66802
:10D4900073E713B0F0BD7FB50023039100900190B6
:10D4A00002938378C91803230491C356C9180378DB
:10D4B0000591002B07D0684600F027F86846FEF774
:10D4C000C1FC0028F7D107B000BDF0B585B00E0053
:10D4D0008C68694607001500FEF774FB002812D01F
:10D4E000B06800280FD0302372781340202B03D16E
:10D4F00029002000FFF7CFFF2A0021006846FFF730
:10D50000F9FE019B7B6005B0F0BD0F2210B54368AA
:10D5100086B05B781A40082A0ED103691C68002C7B
:10D5200038D00023210023736846FEF7BDFA684611
:10D53000FFF7EBFFA468F2E73F22190091430A1EB0
:10D5400009D130211940102902D143691A700CE029
:10D550009B060AD506E080291CD1002201690A60D9
:10D560009B0617D543691A7014E00F224368597857
:10D570000A40072A04D101699868FFF78CFF09E087
:10D5800099681A790069002902D001F0E9FC01E0EC
:10D59000FDF73EFC06B010BD10B500F02DF9C046F9
:10D5A00075DF704761DF704760DF704710DF7047DD
:10D5B00052DF704710B52D4B1A78012A19D12C4A29
:10D5C0001268120715D12B4AE0241168F0220800D6
:10D5D000104021420BD128490968114209D127493D
:10D5E000274A11608021274A0902116001E0302892
:10D5F000F1D01A78012A0DD11D490968090709D10E
:10D60000F0201C4909680140402903D11A490968E2
:10D61000014223D01B68DBB2012B25D1144B1B68C0
:10D620001B0721D1134B1A68F0231A40A02A04D1FA
:10D63000114A12681A4203D016E0D02A14D1F7E733
:10D64000114B1A68012A03D1C022104B1A600BE05B
:10D650000F4A1A601A68012AFCD1F5E7C12180201F
:10D66000C900C0054250D5E710BDC046E00F00F02C
:10D67000E40F00F0E80F00F0EC0F00F0DFFF07C050
:10D6800004050040186C004000EC064014EC064015
:10D6900075930000F0B5344C85B0638822899A42B6
:10D6A0000ED862899A420BD3636A002B03D0012201
:10D6B00003A80270984700232D34237005B0F0BDF5
:10D6C00023002D331B78002B05D0636A002BF2D08A
:10D6D00003A80022EDE723002C331B78002B01D197
:10D6E000676900E0A769214B5A680193002A38D086
:10D6F0000720042F31D91E4E7369002B31D000232F
:10D70000727C0093012A00D1009703A80370FEF7F2
:10D71000EFFF02ABD81CFEF7CBFC0425002810D08D
:10D720000123144A0370144B4660D35800258360CC
:10D73000009B019A03610023436102ABDB78C76061
:10D74000537003AB1878FEF79BFC002D04D18022A8
:10D750000A4B52035A60AEE72800A36A002BA9D1F6
:10D76000A9E70820F9E7C046DC340020203100207A
:10D77000283100200010014004050000FCE100E019
:10D780007BDF70477ADF704776DF704737B5184C1C
:10D79000184BE08D2500984228D022002C321378B7
:10D7A0000133DBB21370217F994209D32100083184
:10D7B000FFF7F6FE002819D0A36A002B15D115E05B
:10D7C00000231370631CDB7F002B08D03B21FFF785
:10D7D000DBFF002803D0A36A002B00D098476B6AB8
:10D7E000002B03D0002201A80270984737BDC04625
:10D7F000DC340020FFFF0000BFF34F8F034A044BCF
:10D80000DA60BFF34F8FC046FDE7C0460400FA055B
:10D8100000ED00E010B5084B1B6B002B04D09847BF
:10D82000002807D0FFF7E8FF044B1B78002B01D03E
:10D83000FFF766FA10BDC046DC34002088340020B3
:10D8400010B5FFF7D9FF70B50D4A0E4C0E4B626351
:10D8500026000E4A9B6BA2630022E3630C4B0D4D26
:10D86000443623640C4B310028001A605A60FFF7DD
:10D8700012FE2000320029003430FFF73BFD70BD5E
:10D88000D5B80300DC34002050310020AC3100203A
:10D8900029DC030044F1030048310020A0230322C7
:10D8A000C449DB05F0B55A5004315A50C249EC2442
:10D8B0005A508020A121E400C90080031A51585019
:10D8C0008020C0035850802580202D0440045D50E6
:10D8D0005850BA49BA4E5D50EA25ED005E51002617
:10D8E000B84D1A5158505A32B74B89B0FF32B74928
:10D8F00028001E7001F034FB2C68631C06D0320037
:10D900005821B348FEF79EFB84420ED0AE22002180
:10D9100052002800FDF77CFA012300206B60FFF71E
:10D920001FF9002801D0FFF767FFAA4B1A6803937D
:10D930002B69012B0AD06B69002B07D0AB69A64974
:10D94000A64E5C18A40AA402A41801E01400A44E78
:10D95000B368A52B5AD002D8012B05D076E0AA2BAC
:10D9600060D0AC2B64D071E06969002301296ED1CD
:10D970006B6A2E6B029393190193029B9E1B80236B
:10D980003700DB009E4200D91F00002201210198D0
:10D99000FEF7B1FF031E57D13A0021000198FFF7AF
:10D9A0004DF8002850D103230493019B04A805934C
:10D9B000BB0806940793FEF78FFF021E44D1012196
:10D9C0002000FEF798FF00283ED12B6BE419DB19ED
:10D9D0002B63FFF7C5F8019BF61BDB190193002EA3
:10D9E000CDD1039B320018680299FEF72BFBAB6A7E
:10D9F000984204D101232B62029BE861AB61774816
:10DA0000FEF732FF0020FFF7ABF80FE02000FFF732
:10DA1000EFF8041E18D13000FEF726FF2000FFF7B4
:10DA20009FF80EE031002000FFF72CF9002309E0F9
:10DA30002000FFF7DDF8002806D131002000FFF7B5
:10DA400021F90123002802D0012300E00023A222B3
:10DA5000A021D200C9058A58D2021BD5594A916D1E
:10DA6000012906D100209065FFF77AF8002811D02F
:10DA700059E7002B0ED1FEF7DDFE00280AD0039BEC
:10DA80001C68FEF72BFF002800D087E02000FFF77E
:10DA900027F983E0FEF722FB0522524D524B00246A
:10DAA000AB67524B52499A702A007C321C705C70F2
:10DAB0005A600B0078331C700B008020C022C526F2
:10DAC000FF2779331C704B4B400352004C67B60064
:10DAD00098509A59BA433F3F3A439A51A12218604D
:10DAE0004548D2008450043E9F59444A3A40C027DA
:10DAF0003F023A439A51424B424EC358424FCB6782
:10DB0000424B1A1D1A60AC337365330058331C70D6
:10DB10003300082259331C703D4B1A8033000C32FD
:10DB20005A331A803B4BFF1AFF080193BC4208D0BE
:10DB3000019AE300D3589847002800D0F3E6013457
:10DB4000F4E70121344A1F4C13780B431370334A16
:10DB5000334B1A600422334B1A600023F365A36B26
:10DB60002600002B17D0FFF76EFE002813D0236A83
:10DB7000002B02D1A369002B06D1F36A002B0AD136
:10DB8000B369002B07D0736A2B67286FFEF716FE68
:10DB9000012374352B70FEF7A7FCFCE7039B1C6880
:10DBA000FEF79CFE002802D12000FFF799F8002024
:10DBB00009B0F0BD540700005C0700000C05000030
:10DBC0000C000300503100200C31002000FC030049
:10DBD0005431002008300000FF03000074310020A1
:10DBE00068310020DC350020C5C40300203100204E
:10DBF0005C36002000E100E000100140FF00FFFF64
:10DC000004050000DC370020902C0020DC360020CA
:10DC10008A340020882C002018330020F1B903003A
:10DC200078340020143100205B689A68054B9A42D2
:10DC300006D14268836804490132013B0A604B60A7
:10DC40007047C046A8F1030048310020024A13681B
:10DC5000013B13607047C0463838002070B5174E3E
:10DC60000423346825001D4022D123431448336027
:10DC7000FEF708FE134B1888134B984205D013216A
:10DC8000FFF782FD002810D014E0A3070DD5FFF7A1
:10DC9000C7FA00280ED18021A123A022DB0089032E
:10DCA000D205D15006231C433460FEF755FD02E037
:10DCB000002500E00500280070BDC0463C3800206B
:10DCC000C0D40100682C0020FFFF0000F8B5124B03
:10DCD00005001C88114B08209C421CD00126104BCB
:10DCE0001F68374217D0583018715D385871080ACC
:10DCF000D9711872080C090E9972110ADA72197327
:10DD0000110C120E58729A739E71597329880B2246
:10DD10002000FFF7F4F9F8BD682C0020FFFF000099
:10DD20003C38002070B50A4B05001C88094B0820C0
:10DD30009C420CD0084B1E68F60708D55830187165
:10DD40009A715971298803222000FFF7D8F970BD14
:10DD5000682C0020FFFF00003C380020A023032295
:10DD6000C149DB05F0B55A5004315A50A122802137
:10DD7000D20089039950802197B0BC4DC90306ACED
:10DD8000995020000422290001F0EAF8FEF7A6FDD0
:10DD90000195002852D1B648FEF7A0FF051E4ED1CE
:10DDA000B44BB54A143313604822B44BB44F1A80B5
:10DDB000B44AB54B1A603E68B604F60F03D0802211
:10DDC000B24B9201DA67B2492000FFF7EFFB00285F
:10DDD00006D0002E00D142E180239B013B603EE152
:10DDE0000122AC4B1A70C5239B00FB589B0D1342BC
:10DDF00000D134E18021A84BC9035A68002A00D120
:10DE00002AE11A680A431A600FAE1422002130007A
:10DE1000FCF7FEFF022333800023327B33610133A2
:10DE20009A4333727372B3729C4B0AA90393039B98
:10DE300030000A933273FFF7B7FB039B0500002DF8
:10DE400000D00EE1964A974B0FAE1A6029000822C7
:10DE50003000FCF7DDFF11230AAF38002370FFF715
:10DE6000E1F9051E06D17B78390001337B70FFF79D
:10DE7000DBF90500002D00D0F3E08B4F380001F0F6
:10DE800078F8390082B22000FFF7C8F900280AD1DB
:10DE90000C233380DB1873807933FF333000B58077
:10DEA000F380FFF76FFC051E00D0DAE001227F4B04
:10DEB00052421A80012304A98B707D4B7D4A0120B8
:10DEC0000B806C4EFFF7A4F9051E00D08DE0019980
:10DED00010220431200001F043F8310020005E31AF
:10DEE000FFF78CF9051E00D07FE00FAF0AAC0100F0
:10DEF0001C223800FCF78CFF290014222000FCF7BC
:10DF000087FF2900032202A8FCF782FF04223B7846
:10DF1000390013433B70674B02AA9B78937313003D
:10DF200002229A8101221023134302AA537093788C
:10DF300006229343043A1343013A134302AA93700F
:10DF400005AB0A931423A38133006260594A6033FE
:10DF500010882200FFF75AF9051E00D081E0010069
:10DF60001C223800FCF754FF290014222000FCF783
:10DF70004FFF2900032202A8FCF74AFF08223B7842
:10DF800039001343921813433B704A4B02AA9B7803
:10DF90009373130001229A810F225B7893430E3A08
:10DFA00013430E3213400132134302AA5370937885
:10DFB00006229343043A13430E3213430F3A13439A
:10DFC00002AA937005AB0A931723A3813300626002
:10DFD000384A683310882200FFF718F9051E40D12F
:10DFE000012332681343336001E0002D39D10FACB7
:10DFF0001C2200212000FCF70BFF2F4B2F4A10930F
:10E000008023DB0111930323237313002C49159103
:10E0100045CC45C345CC45C319602A4B2A481D70E1
:10E02000FFF7AEFB002813D10122284B52421A8081
:10E03000274B1D70274B5B68002B0BD0264B1A7C9F
:10E04000002A07D1254A1D745D745A61FFF772F8E2
:10E05000050006E0082504E0094B1960D4E6FFF747
:10E06000CBFB280017B0F0BD5407000080F203007E
:10E0700000AC03003C3800208434002082340020AF
:10E0800000E100E0DFC603000C35002004E100E001
:10E0900041D803008834002018310020002C0020D3
:10E0A00025AE03007C34002094F20300682C00208D
:10E0B00059FEFFFF98380020CD0C0000EC34002002
:10E0C00099D5030009350020E43400200A350020EA
:10E0D0000835002020310020283100208DD7030092
:10E0E0000849094A70B5521AD208D200131D074CCC
:10E0F0005D18AC4204D02368984708340028F8D053
:10E10000FFF77AFB882C0020902C00208C2C00201C
:10E1100003210A4802680A430260094802680A4368
:10E1200002600849084A094B9B1A03DD043BC858A2
:10E13000D050FBDCFFF73EFAFCF7F2FD240500406F
:10E140005405004058F30300002C0020902C0020C0
:10E15000FEE7FEE7FEE7FEE7FEE7FEE7002A03D064
:10E16000013A8B5C8354F9E7704710B5013A52B21B
:10E17000002A08DB9300C458CB589C4205D8F5D23E
:10E180000120404202E0002000E0012010BD00001C
:10E1900070B50824E31ADB0001330400002003A556
:10E1A0005B1920C940CAAD1920C4184720C940CA0C
:10E1B000754120C420C940CA754120C420C940CA45
:10E1C000754120C420C940CA754120C420C940CA35
:10E1D000754120C420C940CA754120C420C940CA25
:10E1E000754120C4404170BD0000000000000000E7
:10E1F00070B50824E31ADB000133002403A5C046F0
:10E200005B1920C940CAAD1B20C0184720C940CAAD
:10E21000B54120C020C940CAB54120C020C940CA6C
:10E22000B54120C020C940CAB54120C020C940CA5C
:10E23000B54120C020C940CAB54120C020C940CA4C
:10E24000B54120C064416042604170BDF0B55F4699
:10E2500056464D464446F0B4013B9B0098465B0051
:10E260009946002300240025002601B4002702E07F
:10E27000370040463F1A9A46A346AC46B646F01BC6
:10E280001458C859030C80B2250CA4B21E006E436A
:10E290006343454360431C041B0C00195E412C047E
:10E2A0002D0C00196E4153465C4665461B1874419F
:10E2B0000020454176460437474501DCB742DADDA8
:10E2C0000098835123462C46002504364645CDDD73
:10E2D0004E45CDDD835101BC3CBC90469946A246DB
:10E2E000AB46F0BDF0B55F4656464D464446F0B4E9
:10E2F000013A9200904652009146002200230024E9
:10E30000002501B4002602E02E004046361A92464F
:10E310009B46A446AE46AF1BCB598859020C80B22F
:10E320001C0C9BB2150065435A43444358431304E5
:10E33000120CC01855412304240CC01865415246E4
:10E340005B466446BE4203DA002712186B417C41EB
:10E35000002712186B417C4175460436AE4202DA42
:10E36000AF1BBE42D3DD009842511A46234600241B
:10E3700004354545C6DD4D45C6DD425101BC3CBCBA
:10E3800090469946A246AB46F0BD00231A0010B550
:10E390008B4204DA9C00013322505BB2F8E710BDD7
:10E3A000F7B501911E0002215B5E07210500D81D13
:10E3B000C4170C401F3324181831D8170140CB184C
:10E3C0005F11E410944200D914007BB219002800B8
:10E3D0000093FFF7DAFF220001992800FFF7BEFE45
:10E3E0000222B35EE4009C421FD92022E41ABB0043
:10E3F0000027EB18121B043B191D8D4207D2186829
:10E400000100E1409040394319600700F3E72436EA
:10E41000009A29003000FFF7A8FE012805D0009BD4
:10E42000320029002800FFF7E3FEF7BD00231A00A1
:10E4300010B58B4205DA9C002458013322435BB2AD
:10E44000F7E75042504110BD1F234A1119401E3BAF
:10E450008B409200105818407047000003000139AB
:10E4600049B2002909DA0020013149B2814212D0B3
:10E47000094A8A189200D35804E08A00D258002A28
:10E48000EDD0F0E7002B02D05B080130FAE701394C
:10E490004901081800B27047FFFFFF3F002330B565
:10E4A000934205DA9C000D59013305515BB2F7E741
:10E4B00030BD0000F0B50C0000278BB0082205002D
:10E4C000FFF7ECFFE36A02AA0593236B11000693A2
:10E4D000636B10000793A36B04970893E36B039798
:10E4E000099308230297FFF753FE0823060002AAA8
:10E4F00029002800FFF74CFE236B02AA0593636BEB
:10E5000011000693A36B36180793E36B1000089372
:10E5100008230997FFF73CFE0823361802AA2900B2
:10E520002800FFF735FE236A36180293636A02AAB1
:10E530000393A36A29000493A36B28000893E36B59
:10E5400007970993082306970597FFF721FE636A4B
:10E55000A26B0293A36A06920393E36AE26B0493AD
:10E56000636B361805930893236A0792099302AAEE
:10E57000082329002800FFF70BFEE36A36180293F0
:10E58000236B02AA0393636B29000493236A280078
:10E590000893A36A07970993082306970597FFF73F
:10E5A00027FE236B361A0293636B02AA0393A36BB5
:10E5B00029000493E36B28000593636A0797089387
:10E5C000E36A069709930823FFF712FE636B361A76
:10E5D0000293A36B02AA0393E36B29000493236ABB
:10E5E00028000593636A08970693A36A0793236B31
:10E5F00009930823FFF7FCFDA36B361A0293E36B24
:10E6000002AA0393636A29000593A36A280006936C
:10E61000E36A04970793636B0897019309930823B0
:10E62000FFF7E6FD341A0F4EBC4216DA321D0823FE
:10E6300029002800FFF7ACFD2418F7D410E0301DA6
:10E6400008222900FFF791FD012809D0321D082377
:10E6500029002800FFF7CCFD241A002CEFD0F5E7A5
:10E660000BB0F0BD9CF20300002370B5013A52B22A
:10E67000002A07DB950046594C59013A7440234360
:10E6800052B2F5E75842584170BD002310B58900D9
:10E69000411804390A1D904205D20A6854082343E0
:10E6A0000B60D307F5E710BD70B5036805001400D3
:10E6B0000026DB0705D513000A000100FFF768FDFF
:10E6C000060021002800FFF7E0FF002E08D0054BD0
:10E6D000E01880238000281802681B06134303609B
:10E6E00070BDC046FFFFFF3F70B500251E0004ABA4
:10E6F0005D5704002B00FFF74BFD002806D12A00D0
:10E7000021003000FFF731FD012805D02B00320039
:10E7100021002000FFF76CFD70BD70B500251E00C4
:10E7200004AB5D5704002B00FFF762FD002805D005
:10E730002B00320021002000FFF72AFD70BD0000F1
:10E74000F0B51E00A9B018AB04900791100031007D
:10E7500006931700FFF782FEB301181A03B2019364
:10E76000DC171F231C40019B3A4DE418641164B26E
:10E770001D4004D52023013D5B421D43013521008E
:10E7800008A82DB2FFF701FEA400002D12DD08AB92
:10E790009C4600232022A4441C00B000521B984237
:10E7A0000ED0F958A94021436446E150FC58043387
:10E7B000D440F4E708AB181932003900FFF76EFEB9
:10E7C00001247300029308AAB300D3180393019B9A
:10E7D000002B36DB0022012113000D1BAD00029936
:10E7E0008A4214DA06A8A10009589700C85908A956
:10E7F0007958411AC91A884202D088429B415B422B
:10E8000006A8405901320590C15152B2E7E7E41A17
:10E810006242624108AD31002800D4B2FFF735FFF3
:10E82000731EB2009B0052595959D2070A430398EC
:10E8300031005A51FFF729FF0198013803B20193C3
:10E84000C5E706ABA4003200E1580498FFF726FEA6
:10E8500029B0F0BD1F00008070B5002405001E0027
:10E8600090B014AB1C5768462300FFF7EFFC230061
:10E87000320069462800FFF763FF10B070BD30B565
:10E880001C000023050091B0E3566846AC34FFF746
:10E89000DDFC236869462800984711B030BD30B5CB
:10E8A00014000022050091B0A2566846AC34FFF770
:10E8B00019FD236869462800984711B030BDF0B5AE
:10E8C0008DB0040015000F002022002104A8FCF7E1
:10E8D0009FFA032304930023EB562A0039002000FB
:10E8E0000393FFF7DCFF039B2E1D009304AA330064
:10E8F00021002000FFF711FF2B003A00210020002B
:10E90000FFF7BDFF2A00039B8432009321003300F0
:10E910002000FFF7E9FE0DB0F0BD0000F0B50026C5
:10E9200097B0049103939E57050031001000140026
:10E93000FFF77CFD002800D097E0039A049906A811
:10E94000FFF7ADFF039B06AA29000EA8FFF797FF6C
:10E9500006A90800039AFFF7A2FF0499039B080089
:10E960002200FFF78CFF039A21002000FFF797FF9A
:10E97000039B22001F1D3B00290028000096FFF783
:10E98000B3FE3B002200210020000096FFF7ACFE02
:10E990003B002200290020000096FFF7BEFE039BEB
:10E9A000220029002800FFF76AFF3B002A00290007
:10E9B00020000096FFF798FE3B00009622002900F9
:10E9C0002800FFF791FE2B68DB0714D533003A00CF
:10E9D00029002800FFF7DCFB310005902800FFF735
:10E9E00054FE234B059AF3189B00EB181968D207C5
:10E9F0000A431A6003E031002800FFF746FE039A3D
:10EA000029002000FFF74BFF3B000EAA2100200049
:10EA10000096FFF782FE3B000EAA21002000009620
:10EA2000FFF77BFE0EA908003B0022000096FFF7CF
:10EA300074FE039B0EAA29002800FFF720FF06AAF8
:10EA40003B00100029000096FFF767FE320021000E
:10EA50002800FFF723FD320004992000FFF71EFD78
:10EA6000320006A90498FFF719FD17B0F0BDC046A3
:10EA7000FFFFFF3FF0B5002514001E008DB0129B74
:10EA8000029003915D571F1D3B000200210004A866
:10EA90000095FFF742FE04A9129A0800FFF7FFFE57
:10EAA0000299129B04AA0800FFF7E9FE129B04AA30
:10EAB00021002000FFF7E3FE3B00039A3100300005
:10EAC0000095FFF72AFE129A310004A8FFF7E7FE2F
:10EAD00004A93B00029A08000095FFF71EFE04A956
:10EAE0003B00220008000095FFF717FE3B00029A4A
:10EAF000210020000095FFF710FE0399129B2200D1
:10EB00000800FFF7BCFE3B0004AA02992000009514
:10EB1000FFF703FE129B220031003000FFF7AFFE2B
:10EB20003B00039A310030000095FFF7F6FD2A0004
:10EB300004A92000FFF7B2FC0DB0F0BDF0B516003F
:10EB40001C0007000D0089B01A0031006846FFF76D
:10EB5000A6FE23006A4639003800FFF790FE230026
:10EB6000320069466846FFF78AFE23006A4629009C
:10EB70002800FFF784FE09B0F0BDF0B50E00A3B089
:10EB800007001900300015001C00FFF74FFC00289B
:10EB900004D021003800FFF7F8FB76E031000126B1
:10EBA000220002A8FFF77AFC220029000AA8FFF73A
:10EBB00075FC210012A8FFF7E8FB21001AA81296A5
:10EBC000FFF7E3FB22000AA902A8FFF7CEFA00280C
:10EBD00056D0029B0193334204D1210002A8FFF7D3
:10EBE00054FD27E00A9B0193334204D121000AA877
:10EBF000FFF74BFD3EE0230000281FDD02A90AAA13
:10EC00000800FFF7F5FA210002A8FFF73EFD2200F9
:10EC10001AA912A8FFF7A9FA002805DA12A92300F9
:10EC20002A000800FFF7B4FA12A923001AAA080064
:10EC3000FFF7DEFA2200290012A81EE00AA902AAA4
:10EC40000800FFF7D5FA21000AA8FFF71EFD2200F1
:10EC500012A91AA8FFF789FA002805DA1AA92300D1
:10EC60002A000800FFF794FA1AA9230012AA080044
:10EC7000FFF7BEFA220029001AA8FFF715FDA1E749
:10EC8000220012A93800FFF709FC23B0F0BD0000F4
:10EC9000004870479CF20300F0B50024EFB01F005D
:10ECA000749B0890079109921C5702229B5E1F22B9
:10ECB0001F33D9170A4000258C21D3185B115BB292
:10ECC0000393013B9B000693069A26ABD55049005F
:10ECD00008AB5B1856AE9D5095510122749B3900CC
:10ECE0009A564EA8FFF73AFA0122749B30009A56C2
:10ECF000B918FFF733FA21004EA8FFF797FB071E5C
:10ED0000AF4200D01AE121003000FFF78FFB3D0039
:10ED10000590002800D011E1749B039A24334EA97A
:10ED200018000493FFF721FA059D012800D005E1A2
:10ED3000039A31000498FFF718FA059D012800D0C6
:10ED4000FCE03100039B049A1EA8FFF716FF069B08
:10ED5000059A0EAE9A510799749B099A3000FFF7F5
:10ED60001FFB039B1EAA00933100049B3000FFF79A
:10ED700073FD039B5EAD00931EAA049B4EA916A8CB
:10ED8000FFF76AFD280022000899FFF787FBA30020
:10ED9000EF180993089BA200991838002200FFF78A
:10EDA0007DFB749B22004433190036A80793FFF7BC
:10EDB00075FB079BA20099183EA82200FFF76EFB87
:10EDC000749B2900043336AA1EA800940693FFF70B
:10EDD000A4FC749B2A0000933EA93B0036A8FFF7D1
:10EDE00049FE1EA908002300069AFFF7C6FE1EAAC8
:10EDF00039002800749BFFF7A1FE059B03990A9335
:10EE0000079B30000B93089B0D950C93FFF726FB97
:10EE10000399070016A8FFF721FB3D1C874200DA83
:10EE2000051CADB26F1E3FB239003000FFF70CFB7E
:10EE300006003900701E864116A8FFF705FB431E29
:10EE40009841400006430AABB600F6582200310054
:10EE500026A8FFF723FBA300F11822002EA8FFF736
:10EE60001DFB21001EA8FFF790FA0123023D1E930F
:10EE70002DB2002D43DB749B1EAAA4331E682EA95D
:10EE8000749B26A8B04729000EA8FFF7DDFA0600FC
:10EE90002900701E864116A8FFF7D6FA431E984136
:10EEA00040000643B6000AABF658002E25D02200DB
:10EEB000310036A8FFF7F2FA099B2200F1183EA8AC
:10EEC000FFF7ECFA749B1EAA3EA936A8FFF736FEA0
:10EED000069B36AA26A946A80094FFF71EFC749B41
:10EEE00026AA00933EA92EAB36A8FFF7C3FD1EA9A4
:10EEF000749B46AA0800FFF7C2FC013DB8E71EA9B3
:10EF000008002300069AFFF738FE1EAA2EA926A89D
:10EF1000749BFFF713FE039A26A90498FFF725F9BF
:10EF2000012805D026A9039B049A0800FFF760F981
:10EF300022004EA926A8FFF797FB050028006FB016
:10EF4000F0BD30B50024A24208D0035D651C0C5D05
:10EF5000A34201D0181B02E02C00F4E7002030BDD2
:10EF6000002310B59A4203D0CC5CC4540133F9E7B6
:10EF700010BD0023C25C0133002AFBD1581E70472C
:10EF800002B4714649084900095C49008E4402BC3C
:10EF90007047C04603B47146490840004900095A09
:10EFA00049008E4403BC70479140031C90409C462E
:10EFB000203A9340194352426346D3401943704765
:10EFC000F8B5C046F8BC08BC9E467047F8B5C046C8
:10EFD000F8BC08BC9E46704743000000002C00208F
:10EFE000FC84CFD2F121D12AEF079DD5312C829319
:10EFF000087CF1EA602686897FCB97DFDE30914876
:10F000003F334C64D392D548F2D1D2FAC293CCA903
:10F01000A9B4C8C300AD6D920CDCC8BB1A4DB7389B
:10F02000ABD0030055D00300F3CF030063CF030040
:10F0300049CF0300B7CF030079CF0300CBD403003F
:10F0400000000000982F8A4291443771CFFBC0B571
:10F05000A5DBB5E95BC25639F111F159A4823F92A3
:10F06000D55E1CAB98AA07D8015B8312BE853124FC
:10F07000C37D0C55745DBE72FEB1DE80A706DC9BBD
:10F0800074F19BC1C1699BE48647BEEFC69DC10F69
:10F09000CCA10C246F2CE92DAA84744ADCA9B05CA5
:10F0A000DA88F97652513E986DC631A8C82703B068
:10F0B000C77F59BFF30BE0C64791A7D55163CA0676
:10F0C00067292914850AB72738211B2EFC6D2C4D82
:10F0D000130D385354730A65BB0A6A762EC9C28170
:10F0E000852C7292A1E8BFA24B661AA8708B4BC206
:10F0F000A3516CC719E892D1240699D685350EF430
:10F1000070A06A1016C1A419086C371E4C774827E6
:10F11000B5BCB034B30C1C394AAAD84E4FCA9C5B5C
:10F12000F36F2E68EE828F746F63A5781478C884AD
:10F130000802C78CFAFFBE90EB6C50A4F7A3F9BE8F
:10F14000F27871C6011704FC7000000050F2030051
:10F15000021704FCB400000020F2030000000000CD
:10F16000000000000000000000000000010100009D
:10F170000100000000000000020500002100000066
:10F18000000000000000000000000000000000007F
:10F190000101000004000000000000000000000069
:10F1A0000000000000000000011104FC0400000049
:10F1B00000000000021104FC040000000000000038
:10F1C000032104FC0404000000000000041101FFFE
:10F1D0000100000000000000051102FE0400000014
:10F1E00000000000061104FC040000000000000004
:10F1F000071104FC0400000000000000081701FFD4
:10F20000220000006CF10300091001FF0100000062
:10F2100068F1030000000000000000000000000092
:10F22000010700007000000050F20300020100001E
:10F230000100000000000000030500004100000084
:10F2400000000000000000000000000000000000BE
:10F25000011101FF0100000000000000021702FE82
:10F2600064000000A8F10300031704FC0400000080
:10F2700090F103000000000000000000000000000A
:10F280000100000750EADA308883B89F604F15F319
:10F290000000C98E44667554617267000820000141
:10F2A000FFFFFFFFFFFFFFFFFFFFFFFF000000006A
:10F2B000000000000000000001000000FFFFFFFF51
:10F2C000512563FCC2CAB9F3849E17A7ADFAE6BC08
:10F2D000FFFFFFFFFFFFFFFF00000000FFFFFFFF3A
:10F2E00096C298D84539A1F4A033EB2D817D0377E0
:10F2F000F240A463E5E6BCF847422CE1F2D1176B7B
:10F30000F551BF376840B6CBCE5E316B5733CE2B4D
:10F31000169E0F7C4AEBE78E9B7F1AFEE242E34F7C
:10F320004B60D2273E3CCE3BF6B053CCB0061D65B9
:10F33000BC86987655BDEBB3E7933AAAD835C65A42
:10F340001DE90300BFE80300B5E40300000000006E
:08F35000D0B9FF7F01000000AD
:10F3580000000000000000000000000000000000A5
:10F368000000000000000000000000000000000095
:10F37800D8EF0300000000000000000000000000BB
:10F388000000000000000000000000000000000075
:10F398000000000000000000000000000000000065
:10F3A8000000000000000000000000000000000055
:10F3B800010000000024F400FFFF0000E9AC030096
:08F3C800C1AC030000000000CD
:10F3D00000100000000C040079C6030000000000CB
:08F3E0005DDD03005DDC0300AC
:020000020000FC
:020000041000EA
:0410140000AC030029
:040000033000E111D7
:00000001FF
