:020000021000EC
:10B0000000800020E15C0200215D0200235D02005F
:10B010000000000000000000000000000000000030
:10B02000000000000000000000000000255D02009C
:10B030000000000000000000275D0200295D020002
:10B04000D5E501002B5D020011F201002B5D02002D
:10B050002B5D020000000000CDE901002B5D020025
:10B060002B5D02002B5D02002B5D02002B5D0200B8
:10B070002B5D02002B5D02002B5D02002B5D0200A8
:10B080002B5D0200D1BE01002B5D02002B5D020092
:10B09000ADBF01002B5D02005D6202002B5D02006E
:10B0A0002B5D02002B5D020000000000000000008C
:10B0B0000000000000000000000000000000000090
:10B0C00010B5064C2378002B07D1054B002B02D07E
:10B0D000044800E000BF0123237010BDC020002001
:10B0E00000000000647A0200084B10B5002B03D06A
:10B0F0000749084800E000BF07480368002B00D15B
:10B1000010BD064B002BFBD09847F9E7000000006C
:10B11000C4200020647A02009C200020000000006F
:10B12000164B002B00D1144B9D46402292029A1AD6
:10B13000924600218B460F461348144A121A00F01B
:10B1400067F80F4B002B00D098470E4B002B00D018
:10B1500098470020002104000D000D48002802D06F
:10B160000C4800E000BF00F02DF82000290004F09A
:10B17000F5FD00F011F8C046000008000080002036
:10B180000000000000000000C0200020C8330020A4
:10B190000000000000000000084B10B50400002B68
:10B1A00002D0002100E000BF054B1868836A002B25
:10B1B00000D09847200000F033F8C046000000009F
:10B1C000E86F02000E4B70B500251E000D4CE41A0E
:10B1D000A410A54204D0AB00F35898470135F8E716
:10B1E0000BF0F4FE084B00251E00084CE41AA410D6
:10B1F000A54204D0AB00F35898470135F8E770BD7D
:10B2000094200020942000209420002098200020EA
:10B2100003008218934202D019700133FAE7704795
:10B22000FEE7C046F8B54F464646C0B4164C174D2B
:10B2300022782B789A4222D0154B164F9946164BFE
:10B24000164E98464A461268207894463A88C0B20C
:10B25000C300504342461268634494469988604450
:10B260001B68984723783188DBB20022994201D9C4
:10B270000133DAB2227022782B789A42E2D10CBCE8
:10B2800090469946F8BDC046E6200020E720002001
:10B29000DC200020E4200020E0200020E820002026
:10B2A00010B5002901D1044B1970044B1B68002B09
:10B2B00000D0984710BDC046EA200020EC200020B6
:10B2C000F8B556464D4644465F46584BF0B41A0012
:10B2D000824657490320984600F0F6FB554B9946A5
:10B2E0001B78002B1CD0544F544E554D554C3900F3
:10B2F000032000F0A1FB23003268C046C046C046D0
:10B30000C046C046C046C046C046AA4200D0C0465D
:10B31000013BF2D1FFF786FF4B461B78002BE6D1AD
:10B3200001234A4613705246474B484F1A60434E1A
:10B33000434D14E03900032000F07EFB414B32689E
:10B34000C046C046C046C046C046C046C046C046CD
:10B35000AA4200D0C046013BF2D1FFF763FF02F0E2
:10B36000DDFE041EE6D100220121404604F08EFCE1
:10B370000728F4D000280CD00120354900F05CFBF0
:10B380004B4603201C703CBC90469946A246AB46F7
:10B39000F8BD304C00225821200001F011FA043C85
:10B3A000206057222C49032000F08EFBAE222B4B4D
:10B3B0002100180052009B460BF0C7F9284B234E82
:10B3C0009A461E4D1E4C14E03100032000F034FB61
:10B3D0001C4B2A68C046C046C046C046C046C04650
:10B3E000C046C046A24200D0C046013BF2D1FFF7A2
:10B3F00019FF02F093FE071EE6D153465722594625
:10B40000404604F011FC0728F3D0002807D00120A3
:10B41000144900F011FB4B4603201F70B3E70320D3
:10B42000114900F009FB0020ADE7C04600FC030015
:10B43000EC6F0200EA200020147002008820002037
:10B440000024F400A0860100EC2000204C700200D3
:10B450008070020048320020AC700200F020002012
:10B46000A1B20100CC700200F870020010B51649BC
:10B47000032000F0E1FA0022144B154C1A705D32E3
:10B48000FF32144920000BF060F92368013307D024
:10B49000201D0022582101F093F92368834212D025
:10B4A0000D49032000F0C8FAAE220021520020000E
:10B4B000FFF7AEFE012300206360FFF701FF0028C5
:10B4C00001D000F0DBFC10BD14710200EA20002066
:10B4D0004432002000FC03003C7102000378012B81
:10B4E00001D1014A137070474C230020F0B55F462C
:10B4F00056464D464446F0B4C7B01F00519B150058
:10B500009A460A239B460B005A1E93415A46974C73
:10B510005B421A4020000E00934603F06BFE0028A9
:10B5200000D0DCE0002F00D1E1E00023994606AB1B
:10B530000293539B0494534498465B462026454609
:10B540004C46D3460193019902988C46A444634625
:10B5500084468246059331336344A2440393002911
:10B560005FD0534603225B4213408B4200D90B004D
:10B57000019A062A00D9DEE01300029A16555246B7
:10B580000132012B00D1DDE0524656700232022B0F
:10B5900000D1E3E0524696700332032B00D1DAE08B
:10B5A0005246D6700432042B00D1D1E052461671B7
:10B5B0000532062B00D0C8E0524606215671009194
:10B5C00006320199994229D00199C91A894604394C
:10B5D000890801318800804601980138C01A022884
:10B5E00011D90298E3188446614C63441C60012918
:10B5F00003D05C60022900D09C60009B424443441D
:10B600000093C8450AD00098019C431C1670A342C1
:10B6100004D202305670844200D99670019B9C4639
:10B62000E2443021514488466821524B039A1B68FA
:10B630000132009389465346AC4608E01E705E70A6
:10B640009E70511E03330E700132434527D067456B
:10B65000F4D25F456AD25099C95D0811C5B22C0079
:10B660003734092800DC073C0F2008401C70040018
:10B670003734092801D8303004005C704C460098FB
:10B680009E7040184078A0432E24002800D00C0063
:10B69000511E03330C70013701324345D7D10D23BE
:10B6A000039A059C1374033B537452462633433468
:10B6B000D65402992200304865460BF046F8E2B2B3
:10B6C0002D49049803F014FD002808D1049803F0D4
:10B6D00091FD002803D10024AF4200D233E73800A7
:10B6E00047B03CBC90469946A246AB46F0BD002E02
:10B6F00037D0802106AA1000029233681F4A490001
:10B700000BF02CF80028EADB060028000BF058F8B4
:10B710008046C22801D9C2239846029B4246981906
:10B72000290046440BF011F8B14602E759465298F9
:10B73000791A415C91E7002152460091002B00D11B
:10B7400042E71AE7012100913BE70521009138E724
:10B750000421009135E70321009132E70221009195
:10B760002FE706AB00260293CFE7C0465C200020FF
:10B7700020202020902000204C220020D8710200A0
:10B78000F0B546464F46C0B46F4CC7B020000D0020
:10B7900090461E0003F02EFD002814D1002D18D075
:10B7A000802106AF2B68694A490038000AF0D6FFAD
:10B7B000002808DB4E9B8146062B00D9C2E0644A74
:10B7C0009B00D3589F46002047B00CBC904699463A
:10B7D000F0BD4E9B062B00D9B1E05E4A9B00D358CA
:10B7E0009F460023994640460AF0EAFF4B46C3189D
:10B7F0000500FF2B00D89BE0002DE4DB2A0080230E
:10B800004A445B009A42DED8D6B2534D06A92800BE
:10B810000AF09BFF32002900200003F069FC0300BE
:10B8200058425841C0B2CFE780214900091A380078
:10B83000726833684844009242460AF08FFF050060
:10B84000DAE780214900091A3800F2683368029269
:10B85000B268484401927268009242460AF07EFF44
:10B860000500C9E780214900091A380032693368A8
:10B870000392F26848440292B268019272680092A0
:10B8800042460AF06BFF0500B6E780214900091A1D
:10B890003800726933680492326948440392F2684E
:10B8A0000292B26801927268009242460AF056FF14
:10B8B0000500A1E780214900091A3800336848448F
:10B8C00042460AF04BFF050096E780214900091A1D
:10B8D0003800B26833680192726848440092424668
:10B8E0000AF03CFF050087E78021002349009946C4
:10B8F00006AFA9E7802100234900994606AFE7E794
:10B90000802100234900994606AFAEE7802100233D
:10B910004900994606AF8AE78021002349009946ED
:10B9200006AFCAE7802100234900994606AFAFE77A
:10B9300006A848442A0041460AF007FF5CE70026B3
:10B94000320062E700225AE75C200020D871020032
:10B95000807102009C7102004C220020F0B51B4F48
:10B9600089B03B780500002B03D0194B1B7883422C
:10B9700029D06A46174B6C4643CB43C243CB43C2E4
:10B9800003CB03C2002323750733009302330193D3
:10B99000013B0393104E02330293104B3000069389
:10B9A00003F028FB0022002D0BD02100300003F013
:10B9B0007BFA002803D101233B70054B1D7009B0B1
:10B9C000F0BD074AF1E70020F9E7C0464E2300200A
:10B9D0004D230020B87102005C20002000E0D70158
:10B9E000DDB401000048704781B70100004870478E
:10B9F000EDB4010070B50020FFF7B0FF041E0ED1BA
:10BA0000FFF7F0FF0500FFF7F1FFFF22054B9A60FB
:10BA10008222D2009D50044A1C605C609850200035
:10BA200070BDC046502300201404000010B5012052
:10BA3000FFF794FF10BDC046F0B54F464646C0B470
:10BA40001F4C83B0A368070099466B46DD1D002399
:10BA500028002B70884600F07DFEA2686368266887
:10BA6000D31801339B1B012B09D8002B1BD128783D
:10BA700000F090FE03B00CBC90469946F0BD731CDC
:10BA80002878236000F086FE072301221F404346EA
:10BA9000FF009B0217431F434B461E400236B60071
:10BAA000A4196760E6E72921064B32409B02023267
:10BAB0000B439200711C2160A4186360D7E7C04655
:10BAC00050230020E0710200F0B557464E4645462F
:10BAD000E0B4244D82B0AB68824699466B46DF1DC8
:10BAE0000023380016003B70884600F033FEAA6839
:10BAF0006B682C68D31801331B1B022B0AD8002B50
:10BB000024D1387800F046FE02B01CBC904699461D
:10BB1000A246F0BDA31C38782B6000F03BFE5346D4
:10BB2000072241211A404346D2009B020A431A438E
:10BB30004B46234002339B00EB185A60631C4C4673
:10BB40001C400234A4002C196660DDE72921064B55
:10BB50009B020B43611C14400234A4002C19296081
:10BB60006360CEE750230020E0710200F0B55F462D
:10BB700056464D464446F0B4294D1E00AB6883B08E
:10BB80009A466B46DF1D00238146380093463B7082
:10BB9000884600F0DFFDAA686B682C68D318013373
:10BBA0001B1B032B0BD8002B2DD1387800F0F2FD96
:10BBB00003B03CBC90469946A246AB46F0BDE31CA0
:10BBC00038782B6000F0E6FD4B46072281211A40B1
:10BBD0004346D2009B020A431A4353462340023392
:10BBE0009B00EB185A605246631C13405A460233BE
:10BBF0009B00EB185A60A31C54461C400234A4005E
:10BC00002C196660D4E72921064B9B020B43611C6B
:10BC100014400234A4002C1929606360C5E7C046B3
:10BC200050230020E0710200F0B556465F464D46B5
:10BC30004446F0B42D4D9A46AB6883B099466B46A6
:10BC4000DE1D002380463000934633700F0000F065
:10BC500081FDAA686B682C68D31801331B1B042B69
:10BC60000BD8002B35D1307800F094FD03B03CBCEC
:10BC700090469946A246AB46F0BD231D30782B6016
:10BC800000F088FD424607231340C122DB00134326
:10BC9000BF021F434B464A46234002339B00EB182A
:10BCA0005F60631C13405A4602339B00EB185A60D6
:10BCB0004A46A31C1340524602339B00EB185A60BD
:10BCC000E31C4C461C400234A4000C9B2C196360FE
:10BCD000CCE72921064B9B020B43611C1440023424
:10BCE000A4002C1929606360BDE7C04650230020E2
:10BCF000E0710200F0B54D465F4656464446F0B44A
:10BD00005B4D8BB06B682A689A4200D188E0AA68C4
:10BD10005E1C13409C1CA300EB185F680323904635
:10BD20003B400FD1032241463B04B80D9B0DC31885
:10BD30009B195E1C0B409C1CA300EB185F68130052
:10BD40003B40F0D0022B2CD0BB0ABA059C46120F08
:10BD500000D189E004AB180094194146314002310A
:10BD6000890069184968013602C0A642F5D10092DF
:10BD70008222B806D200AE58400F62460021B0477A
:10BD800000280CD06C602868041B601E8441E0B25F
:10BD90000BB03CBC90469946A246AB46F0BD6C68E1
:10BDA000F1E7731C99464346414648461E40023619
:10BDB000B6003B048143AE199B0D013172689B466E
:10BDC000BE0D89008E422DD9002940D040464B46F9
:10BDD0001840023080002818031D9846CBB2F11A93
:10BDE0009C460C239A46C9B2AA440391514602913B
:10BDF00061460191414600911E49B8066958400FBD
:10BE000088465B460021C047B04229D01A4B8005C6
:10BE1000000C3B40A4002C19034363606C68B2E73C
:10BE20000020B5E700214B4603910291414619409D
:10BE3000023189006918043100910E4901966B584E
:10BE4000B806984600215B46400FC047DCE7F3B2D6
:10BE50009C4600239A460C3398460021A844C4E728
:10BE6000C41CA4084C448DE7340004AB7FE7C046F3
:10BE700050230020140400003F00FFFF002300B502
:10BE800085B001AA9060002103481380536000F040
:10BE900005F805B000BDC0460140000010B50949D5
:10BEA0000120FFF7C9FDFFF7C1FDFFF723FF0028C1
:10BEB000FBD1BFF34F8F044A044BDA60BFF34F8FBF
:10BEC000C046FDE7EC7102000400FA0500ED00E059
:10BED000A021F0B5002347462B4A490080B45350B7
:10BEE0000431535004315350043153504C395350A2
:10BEF00004315350254B1B68002B35D024490026B4
:10BF000052582449244F0C68141B00222402240A8E
:10BF1000904602E0002D18D02B001A68A24214D8D7
:10BF2000A41AB6181A7CDD69002AF3D04246996932
:10BF30001A745A693B68002B19D0100098470028E2
:10BF4000E8D0FFF79BFF002DE6D1144B14491A7877
:10BF50000B789A420ED0134A9B009E50802180237A
:10BF6000114A49035B00D15004BC9046F0BD080063
:10BF70009047CFE70132D3B2022B01D00B70EAE732
:10BF800000230B70E7E7C046001001406C2700203B
:10BF90000405000068270020702700207427002077
:10BFA000752700208027002000E100E0F0B556460C
:10BFB0005F464D464446F0B4AE4BAF4A1B68AF49AE
:10BFC0009A46097813788BB0994200D1F1E0013399
:10BFD000DBB2022B00D1F0E01370A94A9B009E58FF
:10BFE00053469B191B02A34A1B0A13600123984660
:10BFF0000020A44B84461B78002401931900A24B17
:10C000001B6899469F4B4D465B781A0005939D4BE4
:10C010005B6802939B4B9B7808900393954B07902A
:10C020001B689A4804939A4B83461B786046069394
:10C0300009964B4616000090B1421DD002984A0066
:10C040008446521803980131D200C9B26244814239
:10C0500000D1A4E01078022800D184E00328EBD1BD
:10C06000002BE9D01C74DB69002BFBD1013300935A
:10C0700000250023B142E1D1009A099E002A00D098
:10C08000F6E1079A002A02D07A4A04991160089AC8
:10C09000002A03D069467E4A097E11704246002A72
:10C0A00000D05EE14A46D21A511E8A4100251E0088
:10C0B000D2B2089206936F4B00271B689C46724BC6
:10C0C0001B689B46724B1B780793019B9846002385
:10C0D0000193049301339A466E4B0093002D27D0B1
:10C0E0006968A8682C00ED696346CA1A009B1202B1
:10C0F000120A9A4273D81318524623606760A760E9
:10C100002274E761002E79D031683000994204D35F
:10C110008BE01168994277D21000C2695B1A002A3D
:10C12000F7D1E26132002360C4611600002DD7D13F
:10C13000059B984500D1AFE0029A4346914642469E
:10C140000132D2B25B0043449046039ADB004B4479
:10C15000424500D18BE01A78012A6FD032000123CA
:10C1600016000493E2E75768002B28D018009F427E
:10C1700001D116E01000C269002A00D15CE79742A5
:10C18000F8D190420ED01768D269BC46C261002A2D
:10C1900000D151E71368634413602B004CE7002182
:10C1A00058E71A00DD69002D0BD001272B000097FE
:10C1B000E9E70023002698461AE700230CE700234E
:10C1C0003AE701275B4601359D6008970697079778
:10C1D000002704970137002500230097D3E7634623
:10C1E000591A0902090A814215D25246431A23609C
:10C1F0006760A7602274E761002E85D122000123C9
:10C20000A3460193160091E7C91A1160E261236009
:10C210003200C46189E7534627606760A7602374D2
:10C22000E761002EEAD000233168CB1A3360220088
:10C230000123E661A3460193160077E75C68227C40
:10C24000110032000491002900D06EE79968616006
:10C25000D868A0601A69E2605B69A361079B002B44
:10C2600000D177E0049A0021626004933CE7002249
:10C27000904670E76827002074270020752700206B
:10C2800080270020782700206C2700200010014024
:10C2900076270020FEFF7F00049B002B00D0EAE001
:10C2A000019B002B02D05A46764B1A60069BB34284
:10C2B00053D0002E00D1A4E07349744B744C5858ED
:10C2C0006146411A09022578090A32680331002DB6
:10C2D00021D18025D1266D02B6009D51403E9D5151
:10C2E000C02780266B4DB6027F00EE512E600125DF
:10C2F0001D60694B694F1E682F23C046C046C0466B
:10C30000C046C046C046C046C046BE4200D0C04639
:10C31000013BF2D125708A4200D20A00A82462446F
:10C3200012025A49130AE400574D0B514A591B1A7D
:10C33000121A1202120A1B0203321B0A9A4246D830
:10C340000023574A13700BB03CBC90469946A24656
:10C35000AB46F0BD01230493C6E6089B002BEFD04B
:10C36000A7E70025474AAC461068002700210024B3
:10C37000454615E01A68B2421ED8D868B61A891820
:10C380001C60DF69002808D0524652181202120AB7
:10C390005A6062469C469860DA613B0038002F0084
:10C3A000002BE7D16546002F00D05EE00023069306
:10C3B00001330893069E7EE66546002F00D05EE0BE
:10C3C000961B1E6006930123069E089373E64B5945
:10C3D0000B51314B31491A682F23C046C046C04625
:10C3E000C046C046C046C046C0468A4200D0C0468D
:10C3F000013BF2D180218023264A89025B00D15083
:10C400009EE780218023234A8902D1508023D221B4
:10C4100001241E4A5B0289005350403953501E4B81
:10C42000546019682F231D481D00C046C046C046F1
:10C43000C046C046C046C046C046814200D0C04645
:10C44000013DF2D19460174A1660C046C046C0460E
:10C45000C046C046C046C046C046814200D0C04625
:10C46000013BF2D10A4B1E706AE7064B18609DE74C
:10C47000044A156005E642460B4B1A7010E7014965
:10C4800008609DE76C2700200405000000100140B3
:10C490008827002000E100E0882000200024F4002C
:10C4A000762700206827002078270020F0B55F4617
:10C4B000444656464D46F0B4032483B0070001932A
:10C4C00014400720002C06D003B03CBC904699468F
:10C4D000A246AB46F0BD002AF6D08026324DB60209
:10C4E00079302E50802040028046D22043462F4E85
:10C4F00080003350403833500120706081462C4812
:10C50000006884462B4880462F208346C046C0469C
:10C51000C046C046C046C046C046C046C44500D01E
:10C52000C0460138F2D14846B0605846C046C046C1
:10C53000C046C046C046C046C046C046C44500D0FE
:10C54000C0460138F2D11C48019B04701B480360AF
:10C550001B4BC5201C7099705C705A60194B802170
:10C560001C60194BFF221C70184B49031C70C02320
:10C570005B00E95080002B5893433F3A13432B5004
:10C58000A123C422DB0029609200F750A958104B68
:10C5900000200B40C02109020B43AB500D4BF25859
:10C5A0000D4B1A6090E7C04600E100E0001001402A
:10C5B000882000200024F400882700207027002015
:10C5C000782700206C270020742700207527002082
:10C5D000FF00FFFF040500006827002010B50B4B8B
:10C5E0005B68002B0BD0002A07D0002805D0036819
:10C5F00008201C7C002C04D010BD0720FCE708207C
:10C60000FAE759745A610020F6E7C04678270020FF
:10C61000F0B54F4680B42A4C82B0636805000E0026
:10C620001700002B08D0002806D00720042905D8C1
:10C6300002B004BC9146F0BD0820F9E76B69002BFD
:10C64000FAD000226B7C9146012B2ED06A46002343
:10C65000D01DD37100F07EF86378A1785A1CD2B255
:10C66000914224D02178914223D05900CB1861689F
:10C67000DB008C466344002B1BD00121114819704C
:10C6800011495D604158DE60996049465F611961FA
:10C690006B46D879627000F07DF8802180230B4AC8
:10C6A00049035B00D1500020C2E78946CEE7002253
:10C6B000D8E76B46D87900F06DF80420B8E7C0469B
:10C6C00078270020001001400405000000E100E090
:10C6D00070B51E4C0500636882B00820002B2BD07B
:10C6E000002D29D06B69002B26D06A460023D61D69
:10C6F0002B743000337000F02DF86378A1785A1C49
:10C70000D2B291421AD02178914219D05900CB1857
:10C710006168DB008C466344002B11D00221197044
:10C720005D603078627000F035F880218023002051
:10C73000074A49035B00D15002B070BD0022E2E716
:10C74000307800F027F80420F6E7C046782700206C
:10C7500000E100E0F0B5EFF3108172B60A4B5A68C1
:10C76000002A0DD101248025084E5C607459084FC1
:10C770003C401C6077510270002900D162B6F0BDC8
:10C7800001230370F8E7C046A033002000E100E079
:10C79000FC06FFBC10B5084B5A68002A0BD00028D5
:10C7A00009D1EFF3108272B604491C680C6058601E
:10C7B000002A00D162B610BDA033002000E100E0E5
:10C7C00070B5002A3ED01268D243002938D0060046
:10C7D000012341183078504044080022034200D021
:10C7E0001A4A2000504044080022034200D0174A51
:10C7F000544060080022234200D0144A50404508AB
:10C800000022034200D0114A55406C0800222B42FE
:10C8100000D00E4A544065080022234200D00B4A43
:10C8200055406C0800222B4200D0084A5440600852
:10C830000022234200D0054A01364240B142C9D10C
:10C84000D04370BD01225242BFE7C0462083B8EDFD
:10C85000F0B52B4C83B063686188002B49D05A88AF
:10C86000284F03320E0192009A18BB195968802391
:10C87000DB00C818824224D21368013321D0224D34
:10C880009388AB4214D01388002B11D003201F4B88
:10C89000626099881B6889005918538820700020AD
:10C8A000033300909BB21A4801F022FA03B0F0BDA6
:10C8B000538803339B00D218824202D2136801339B
:10C8C000DED1BE19B389002B0BD0052302222370C1
:10C8D0000E4B0F489A801968013A002301F064FA60
:10C8E000E4E7002301220A4801F05EFA04232370E2
:10C8F000DCE7044F0E01BB1959680A000832B6E79D
:10C9000004280020E4270020FFFF00008C280020DE
:10C91000A0200020F0B5474680B443688C46002B29
:10C9200003D0314A11688B4235D200236246012779
:10C930002E492F4D138080234E68DB00F41800230E
:10C940000DE01A68013212D09A88AA4209D01A88DA
:10C95000002A06D09A6890460268904513D0002BB2
:10C960000ED05A88033292009B189C42E9D8634645
:10C970001F800137BFB21031032FDCD1002007E048
:10C9800033000833F1E743601A4B1B890381012010
:10C9900004BC9046F0BD52689342C6D89A07C4D1F1
:10C9A000144A018912899142BFD1026899688A426A
:10C9B000BBD10E494A68934207D98020C000804607
:10C9C0004244934201D200230AE04A690020934284
:10C9D000DED98021C900884642449342D8D201233F
:10C9E000624601201380D3E7A0200020E427002026
:10C9F000FFFF000004280020F0B54D465F46564674
:10CA00004446F0B48C469988914601294BD8294A6E
:10CA1000294F92460022904654460A01A45C002CFD
:10CA20003CD11C685244002C3FD0658856680335C1
:10CA3000AD0064198025ED00AB465E44A6422BD9BB
:10CA40002568013528D0A588BD421FD02588002D36
:10CA50001CD01C60002803D0A6880588AE42E2D115
:10CA60006546002D03D026882D88AE42DBD14A468C
:10CA70000020A16811601B685360104B1B89138153
:10CA80003CBC90469946A246AB46F0BD658803354E
:10CA9000AD006419B442D3D342461A60013189B261
:10CAA00099800229B8D10A20EAE756683400083490
:10CAB000C0E7C046E4270020FFFF00000428002054
:10CAC000F0B54D465F4656464446F0B4CB4C8BB06D
:10CAD000256F8146EF007B1B9B00E218E35C9246CA
:10CAE000062B26D8C6499A008A589746002800D0B7
:10CAF000F0E0C44E337B002B00D19BE233783073DF
:10CB0000072B00D994E2C04A9B00D3589F460028C7
:10CB100000D0E0E0781B80008346A3445A46127997
:10CB2000012A00D1BDE2002A00D19EE2022A00D1F2
:10CB300026E10F22904605AEB44A904500D1D1E0DF
:10CB40004246726052461278023A012A00D81FE12A
:10CB5000062B5CD8AE4A9B00D3589F46AD487A1B43
:10CB600083469200A218518A09018B444946002944
:10CB700000D0C4E058465946406809898046127C76
:10CB800089008844062A00D93BE3A34992008A58C9
:10CB90009746002800D0A8E053461E79012E00D108
:10CBA0009EE2002E00D18FE2022E00D1FAE0032E89
:10CBB00000D087E2994E00900223994A3168994843
:10CBC00001F096F83368934A9C468E4B90465B88FA
:10CBD0001B01D2185168316061465160B1881181E2
:10CBE00002224146B2804A465A5453461A710028DE
:10CBF00033D07B1B9B00E35C01208B4905AE0A7898
:10CC000082430A700E22904696E705233370874DC3
:10CC10002F0020372B68002B01D0300098470435B7
:10CC2000BD42F7D1236F1C22D800C01A8000201803
:10CC30000021FEF7EDFA636F002B09D00321226F6C
:10CC4000013B01320A4022676367002B00D09BE062
:10CC50000421754A13788B4313700BB03CBC90468B
:10CC60009946A246AB46F0BD04237D1BAD00651975
:10CC70003370EB88B3810023F381C8E703237D1B66
:10CC8000AD0065193370EB88B3812B89F381EB68B4
:10CC9000B360BCE702237D1BAD00651933702B899F
:10CCA000B381AB88F381EB68B3602B7C063B5942C0
:10CCB00059413174ABE701237D1BAD006519337019
:10CCC0002B89B381AB88F381EB68B3609FE70023C6
:10CCD00033709CE70623012290464C4A05AE9045EE
:10CCE00000D02DE70022726032E701214E4A05AEE6
:10CCF00013788B4313700122012390461CE7D088E0
:10CD00005A461289C11C51185A46118159465289F6
:10CD100005AE121A033A4A81012290460CE7338984
:10CD20003C4A013333810023117833734B424B412A
:10CD3000B372127C53425341F37201233370B37ABE
:10CD4000002B09D00023B372324B9A89002A03D1F9
:10CD50009B7B002B00D057E2F37A002B09D00023F5
:10CD6000F3722C4B9A8B002A03D19B7F002B00D0AF
:10CD700050E200233370738073607B1B9B00E35C85
:10CD8000224A05AE9046D7E60020FFF799FE64E7F9
:10CD90005246917D264A106C40181064506C411A1E
:10CDA0005164D5E61D4B012298464146002309688F
:10CDB0001C4800F0F9FF43464A469E8053461A71CC
:10CDC00015E77388134A1B01D3189A89002A00D1EA
:10CDD000C4E1052302223370104B12489A8019686F
:10CDE000013A002300F0E0FF80464346002B00D1CB
:10CDF00033E71C236B4305AEE35CA1E61428002057
:10CE00000472020004280020207202001D1D000090
:10CE100040720200E42700205C7202008C2800208F
:10CE2000D4720200A020002094280020A428002012
:10CE30008C270020CE48726881888B00016803200F
:10CE4000C918538830700020033300909BB2C94842
:10CE500000F04EFF8046C8E77E1BB600A3191A1DDE
:10CE60009946002341460093C248013300F040FF39
:10CE700002234A461374002800D1EEE60E229046A3
:10CE8000335D7A1B9200A218D0885A461289C11CC1
:10CE900051185A4611815946528905AE121A033A61
:10CEA0004A8149E67E1BB600A31999461A004146FD
:10CEB0000023083204310093AE48013300F018FF1C
:10CEC000A35DDA1E514251410622521A49460A74A4
:10CED000002800D1C1E60E229046D2E7A64A90462D
:10CEE000CFE7A64BA64A59680023A2480093013316
:10CEF00000F0FEFE002800D029E106237D1BAD00D6
:10CF000064192374A9E600239C4805AE43607B1B8B
:10CF10009B009946E3189B6931000360FFF7FAFC18
:10CF2000002899D14B460A221B5D904604E6954A9B
:10CF3000536C002B00D1E8E00726116C013B481C24
:10CF40003040C900106453640020531899467E1B7A
:10CF5000B600A6198A58B18A9B888900009041447E
:10CF6000844800F0C5FE4B46B28A9B88D318B38232
:10CF7000B37D013BDBB2B375002B01D101333374B8
:10CF8000002800D169E60E227B1B9B00E35C9046E3
:10CF900077E7002341467E1BB600A2190C320093AE
:10CFA000083101337348A61900F0A2FEB37D0122B7
:10CFB000002B00D002327B1B9B00E1180A74002872
:10CFC00000D14AE6E35C86E7072333700023684A12
:10CFD00073601168674800936B4A023300F088FE63
:10CFE000804602E7624A736859889388CB180333F6
:10CFF000938002233370FFF72BFC80464346002BBF
:10D0000000D12AE61C236B4305AEE35C94E55F4A3E
:10D01000738890461B0143445968062200233270EE
:10D02000544800935A4A023300F062FE8046DCE620
:10D0300006237EE53378072BFAD856499A008A589A
:10D040009746012333707AE6494A50491368884667
:10D050009C4673881B01C918486810606046486088
:10D060009088088102219180D5E705AE0C2200212D
:10D070003000FEF7CDF85B46DB6802AA05939446C4
:10D080000A23634419003000FFF744FC0A23984642
:10D09000002800D084E002227B1B9B00E3181A7159
:10D0A000A3E63D4B1B789B0731D4022398463B4BAC
:10D0B0000393082200210398FEF7AAF843460A2B9F
:10D0C0009CD15AE6012397E5294B2F4A1968009015
:10D0D0000223284800F00CFE01235246137186E516
:10D0E0002A4B98461B78022B00D188E043461B7CD4
:10D0F000022B73D00223284A11780B43B3431370D9
:10D100001D4A0123904605AE16E51B68FFDE584612
:10D11000224B05AE0630320000210393FFF76CFC72
:10D1200080460028C5D14B467168154A00931148C6
:10D13000012300F0DDFD002801D00E239846039B5B
:10D14000124A9B881B01D31801229A73B6E7062165
:10D150007B1B9B00E2181174E35CBCE6596801324A
:10D160000023044800F020FE0423804633703CE690
:10D170008C280020A02000201D1D000098280020E1
:10D18000C87202008C270020CC720200E427002025
:10D19000D47202007872020094280020D827002060
:10D1A0005A4671681C488B88D3800B8813814B4684
:10D1B0001A4A0093012300F09BFD0E2398460300BA
:10D1C000581E834142465B421A4002AB5B8990463F
:10D1D000134A1B01D31801229A735CE701264346C8
:10D1E00036019B1959680023994600930D4A023372
:10D1F000094800F07DFD43464A469A55F7E400266B
:10D20000EDE70F2290463CE600237380FFF720FBFA
:10D210008046F3E60123F8E7A0200020C872020050
:10D22000E4270020D472020010B50800FFF748FC84
:10D2300010BDC046F0B55F464D4656464446F0B474
:10D2400087B0019000930B894D689B46002B00D15D
:10D25000E0E02868800700D083E02E000024083634
:10D26000032004E037680836074200D079E0013433
:10D27000A342F7D8002A00D19AE0A9469C46148818
:10D280005288694F3B68013302933B6000239A4602
:10D29000009B032B00D185E0644B5F6F032F50D8B8
:10D2A00008255E46AD1BA8466148406C039040458A
:10D2B00047D803200E88049649880D00196F791805
:10D2C000014088464646C900891B89005918CA8012
:10D2D0006A46128A6E460A8100224A8152460A74C0
:10D2E000624636788A750E70059A029E01378D80E7
:10D2F000CE604C8288828A615F675B46002B39D0A2
:10D300004B4A039D126C2B00944607226344134042
:10D31000474A494694465A466746DB00D400634470
:10D32000E0460C193837B44603E0130008318C424C
:10D3300019D01A00080060C860C2BB42F5D143464C
:10D34000F4E73C4B24011C196389033B9A1A628160
:10D350000824200007B03CBC90469946A246AB4644
:10D36000F0BD0324F5E763460293314B304A5B6C12
:10D370005B445364019B002B08D01A0000230299E0
:10D38000536093722C4B11601B8913812B4B00242B
:10D390001A785107DDD4042100200A431A70FFF7E0
:10D3A0008FFBD6E7019B1B68059304239A4673E71E
:10D3B0000022DE0004362C1DAE1923880834D21852
:10D3C00092B2B442F9D1D51CADB20924FD2DC0D81A
:10D3D000184E3478002C06D1738934891C192C1905
:10D3E000A4B2FF2C1CD9377C0724002FB1D1738B3A
:10D3F000378BDF19EF19BFB2FF2FAAD80127063CE0
:10D400003F015D19F61975810B899C469B464B6857
:10D41000994636E7002A00D02FE700220325D7E7F8
:10D4200000240027ECE7C046D42700201428002061
:10D430008C270020E42700200428002094280020C6
:10D4400010B506490C220B78082B05D0044A9C0025
:10D45000A050002201330B70100010BDE027002007
:10D46000A4280020F0B55F4656464D464446F0B429
:10D470008DB01422002107A8FDF7CAFEAE4F3B78FD
:10D480009A0712D5AD4C250020352368002B01D01A
:10D4900007A898470434A542F7D100200DB03CBC42
:10D4A00090469946A246AB46F0BDDA07F5D4012274
:10D4B00013433B7000F0B0FBA14B1E68A14B1C68EE
:10D4C000082398468023DB00E018C0231B019C46FC
:10D4D000A4446346029300239B46A0440093039315
:10D4E0000193994A21682300914204D12BE004332F
:10D4F000984200D1F8E01A680132F8D05B465A46EB
:10D50000013303219BB29B46904D1201515580235C
:10D51000DB009C46029B6444E0446044A342E0D1AB
:10D52000009B002B00D003E16B461B790B20002BE6
:10D53000B4D0062B00D196E00B2B00D9A7E0844A8B
:10D540009B00D3589F466368824A934204D0824A24
:10D55000934245D02300CEE75B461B011A0004939B
:10D5600094460023794900258B5461440A00022324
:10D570004C6041461381AA460D68013521D0774D94
:10D58000A446A9461C00130011E08A68B24202D9E1
:10D590001600012200924D88EA1C9500A21894B250
:10D5A00049191C8181420BD20A68013208D08A884D
:10D5B0004A4502D00A88002AE7D101229246EAE7CA
:10D5C0006446624A049B9446524663449A7302231B
:10D5D000019A1A435B4601339BB201929B4696E740
:10D5E000039B002B2ED15E4D022341462C60AB8065
:10D5F0000B68013300D199E0584AA14602239446B2
:10D600002C0002E00A68013214D08A88624508D0F2
:10D610000A88002A05D08A68B24202D9160001227F
:10D6200000924D88EA1C95009A1893B24919A3807C
:10D630008142E7D34C460822022B53D0019B13436F
:10D64000019364E741495B4602228C46444D1B012D
:10D650005A542968634459601A815B4601339BB26E
:10D6600004919B46C0E702233A78344C13430122CD
:10D67000250093433B7020352368002B01D007A879
:10D6800098470434AC42F7D107E700230593354AA5
:10D69000536F032B12D83449496C08290ED8032044
:10D6A000116F59180840C100091A0120890051184A
:10D6B00008706846007D0133087153673B785A074C
:10D6C00000D5EAE60422002013433B70FFF7F8F987
:10D6D000E3E602230593DAE703230593D7E7012363
:10D6E0000593D4E7043AA9E71D4B1B680493002B6C
:10D6F00014D016495B4602228C461B015A546344DF
:10D700001A815A465C60194B5A805B4601339BB2C2
:10D710009B460123019A1A430192F8E6104B104AE6
:10D720001C6002239380013B0393F2E7042285E708
:10D73000034B1E60F8E6C04694280020A428002071
:10D74000D4270020A0200020DEC0ADDEE42700208A
:10D7500098720200FE011EF1FF011EF1FFFF0000A2
:10D760008C280020142800208C270020042800206A
:10D7700030B5040083B00D000520002C0AD000292C
:10D7800008D06B462000991DFFF7C4F803000A205B
:10D79000002B01D103B030BD6B46DB88074A1B016B
:10D7A000D3189A89616801329A81296063680020E0
:10D7B0000C336B600123A372ECE7C046E427002022
:10D7C00010B5040082B00520002C08D06B46200064
:10D7D000991DFFF79FF803000A20002B01D102B02A
:10D7E00010BD6B46DB88084A1B01D3189A890438A0
:10D7F000002AF4D0A17A0029F1D0013A9A810023BD
:10D800000020A372EBE7C046E427002070B5194B57
:10D810001A780223920701D4180070BD0333002840
:10D82000FAD0CA1C92B20433FD2AF5D8124D2B78D7
:10D83000002B10D16C892B89E318D3189BB2FF2BD6
:10D8400009D8002600231B01EB1812195A81068003
:10D8500041800023E0E72C7C0723002CDCD16C8B7B
:10D860002E8BA6199619B6B2FF2ED5D80126063BE7
:10D87000E9E7C04694280020E427002030B50F4B8C
:10D880001A780223920701D4180030BD002812D064
:10D8900002880233022AF7D8094912018A185189ED
:10D8A00044880D1B032DEFD400230339091B51813C
:10D8B00003804380E8E70523E6E7C046942800207C
:10D8C000E427002010B50C4B1A780223920701D4EC
:10D8D000180010BD00290DD00C88084A023394426C
:10D8E000F6D04A88002AF3D0023B0022FFF7A2FCC0
:10D8F0000300EDE70523EBE794280020FFFF00007D
:10D9000070B50523002A04D00B4B1C780223A40712
:10D9100001D4180070BD00290CD00D88074C0233CB
:10D92000A542F6D04C88002CF3D0023BFFF782FCD6
:10D930000300EEE70523ECE794280020FFFF00003A
:10D9400010B50523002804D00C4B1A780223920747
:10D9500001D4180010BD00290DD00C88084A0233EC
:10D960009442F6D04A88002AF3D0013B0022FFF708
:10D9700061FC0300EDE70523EBE7C0469428002097
:10D98000FFFF000070B5164A02241378990701D4EE
:10D99000200070BD134902348842F9D0124E04347D
:10D9A000716F0329F4D8114D6D6C082DF0D8032543
:10D9B000346F0C192C40E5002C1B0525A4003419EC
:10D9C00025700131043D2571E080716700245907FD
:10D9D000DED4042100200B431370FFF771F8D7E762
:10D9E00094280020FFFF0000142800208C2700202E
:10D9F00070B5154A02241378990701D4200070BD30
:10DA000012480634416F0329F8D8114D6D6C082D6A
:10DA1000F4D80325046F0C192C40E5002C1B0625B7
:10DA20000131A400055541670A490878002801D052
:10DA30000120087300245907E0D4042100200B437F
:10DA40001370FFF73DF8D9E7942800201428002030
:10DA50008C2700200428002030B583B06C4601AD2F
:10DA600029800A49E080097806340220890701D418
:10DA700003B030BD002A06D0002B04D029002000BE
:10DA8000FEF7BAFFF4E70520F2E7C046942800202D
:10DA900030B583B06B46D8800A489C1D05780220BB
:10DAA000AB0701D403B030BD002908D0002A06D04E
:10DAB000130000200A002100FEF79EFFF2E7052078
:10DAC000F0E7C0469428002030B583B06B46D8807C
:10DAD0000A489C1D05780220AB0701D403B030BD75
:10DAE000002908D0002A06D0130020000A000021D7
:10DAF000FEF782FFF2E70520F0E7C04694280020F9
:10DB0000002805D0002903D0036800200B6070476F
:10DB10000520FCE729DF704728DF704770B50B4C04
:10DB20000500626E0020042A0FD0236ED318032B49
:10DB300000D9043B0132626618225343E4180021E5
:10DB40002000FDF765FB01202C6070BDC828002077
:10DB500070B52F4C86B0636E002B10D0256E6E0012
:10DB60007319DB00E3181A7A012A0AD0022A25D198
:10DB70009889FFF7D1FF112815D000281ED106B0D3
:10DB800070BD9A8AD88A121AFF2A14DC92B27319CD
:10DB9000DB00E318D9681B69800009181818FFF723
:10DBA000B9FF1128E9D102221A490B7893430422C4
:10DBB00013430B70E3E780225200E8E710220021B4
:10DBC00002A8FDF725FB7319DB00E3181A7A012A76
:10DBD00015D0022A07D1012202A90A709A89DB898D
:10DBE0004A81D31A0B817519ED0063195B6809210D
:10DBF00001930393635902A89B689847BFE70022EB
:10DC000002A90A701A699B8A04928B81EBE7C046CD
:10DC1000C8280020C4280020F0B5454657464E4687
:10DC2000E0B42A4B5D696B1C4AD0294B99461B789E
:10DC30009846DB073ED4274B27499C46C91A090959
:10DC400032D00F00080160441A68002A03D05A68D5
:10DC5000541EA241BF1A10338342F5D1002F23D0A6
:10DC600000260024F0B263460022A24606E05C686B
:10DC7000002C06D00132103391420BD01C68002CCE
:10DC8000F5D15C7B5445F5D9D0B20132A2461033B0
:10DC90009142F3D1030163441A7B5D609202AD1A95
:10DCA00001361D60B742DCD1012342461A431300FE
:10DCB0004A46137000201CBC90469946A246F0BD0F
:10DCC00080235B055D69AD02AFE7C0460010001020
:10DCD000C4280020A0200020C02000200123034AE7
:10DCE000002011780B4313707047C046C4280020F1
:10DCF000F0B54F464646C0B4284E9946337883B0B7
:10DD00000500884617000124DB0711D5002817D02D
:10DD1000234B013498420BD3224B984208D2002A5D
:10DD20000CD04346002B09D03B4306249B0709D067
:10DD3000200003B00CBC90469946F0BD0324F7E7E1
:10DD40000224F5E72B68013C9845F1D34B466A68FD
:10DD50009B0043449A42EBD34B46013C002BE7D057
:10DD600001A8FFF7DBFE03340028E1D0019B0A9AEB
:10DD70001D605A600122019B00241A7242461A61FA
:10DD80004A469A820622DF6033781342D0D1043AA1
:10DD900013433370FFF7DCFECAE7C046C4280020F7
:10DDA000A0200020C0200020F0B54F464646C0B459
:10DDB000254E9946337883B005000F009046012424
:10DDC000DB070ED5002814D0204B0134984208D32D
:10DDD0001F4B984205D2002909D0BB050624002B11
:10DDE00009D0200003B00CBC90469946F0BD032436
:10DDF000F7E70224F5E72B68013C9F42F1D3434645
:10DE00006A689B02FB189A42EBD34346013C002B05
:10DE1000E7D001A8FFF782FE03340028E1D04A468C
:10DE2000019B02215A601D604346019ABF0A13827A
:10DE3000117297810622337800241342D1D10B430B
:10DE40003370FFF785FECCE7C4280020A020002017
:10DE5000C0200020002804D0034B5B6E036000202C
:10DE600070470320FCE7C046C8280020F0B557469D
:10DE70004E464546E0B4A64EA64C337884B0276E95
:10DE80009A0746D5022800D1ABE0032800D077E0FE
:10DE9000A14A13780133DBB21370032B00D86FE073
:10DEA000002300211370684610227D009846FDF77C
:10DEB000AFF9EB19DB00E3181A7AE946012A00D121
:10DEC000DCE0022A07D1694601220A709A89DB89BF
:10DED0004A81D31A0B814A460821ED19ED006319D6
:10DEE0005B68536063599B6848469847636E013B83
:10DEF0006366002B00D0E9E0022132788A43327059
:10DF0000226E01322266042A34D1002200272266C2
:10DF100037E004221A4233D09343626E3370002AF2
:10DF200028D002227D001343EA19D200A2183370D0
:10DF3000117AEB19DB00E31801292ED1D08AEB19F5
:10DF4000DB00E3189A8A121AFF2A00DD71E092B210
:10DF5000EB19DB00E318D9681B6980000918181851
:10DF6000FFF7D8FD112861D10222337893430422B0
:10DF70001343337004B01CBC90469946A246F0BDD2
:10DF8000636E002BF6D07D00EA19D200A218EB19BF
:10DF9000117ADB00E3180129D0D0022941D01022E8
:10DFA00000216846FDF734F9EB19DB00E3181A7A13
:10DFB000E946012A40D0022A07D1694601220A70A7
:10DFC0009A89DB894A81D31A0B814A46ED19ED0003
:10DFD00063195B6809215360635948469B689847F9
:10DFE000C8E700239A4652464B4B7D001A70EB1946
:10DFF000DB009846A04443461B7A012B25D0022B18
:10E00000BED1434642469B8901339381D389013374
:10E010009BB2D381128A9A4238D0636E002BA9D06A
:10E0200043469889FFF778FD11289DD00028A1D09C
:10E03000B5E7802252008BE7002269460A706A46E3
:10E0400019699B8A02919381BFE74346998AD88ACE
:10E050000B1AFF2B10DD80225200EB19DB009846D3
:10E06000A0444346801880B2D882814235D0636E86
:10E07000002B00D063E77DE79AB2EEE76A4641469F
:10E08000117019699B8A0291938124E71022002163
:10E090006846FDF7BDF843461B7AE946012B32D0AE
:10E0A000022B09D101234A461370434649469A89F7
:10E0B000DB894A81D31A0B814A46ED19ED006319B9
:10E0C0005B680021536063599B680DE7226E571C03
:10E0D0002766042F00D118E755E710220021684673
:10E0E000FDF796F843461B7AE946012BD8D1002369
:10E0F0006A4613706B46424612699A6043464A4626
:10E100009B8A9381D8E76B4652461A70F3E7C04664
:10E11000C4280020C828002030290020034B586E56
:10E12000043843425841C0B27047C046C828002056
:10E130000123034215D14210134214D1821013421D
:10E1400013D1C210134212D10211134211D1421144
:10E15000134210D1821113420FD1C0110FD10948BF
:10E1600070470020FCE70120FAE70220F8E70320CF
:10E17000F6E70420F4E70520F2E70620F0E70720A1
:10E18000EEE7C046FFFF000010B5002819D00029B7
:10E1900017D00488944224D04488944223D08488A1
:10E1A000944222D0C488944221D00489944220D041
:10E1B000448994421FD0848994421ED0C0899042E1
:10E1C00000D010BD0720002B05D0012383400A7822
:10E1D00013430B70F5E7012282400B7893430B70D9
:10E1E000EFE70020EFE70120EDE70220EBE7032057
:10E1F000E9E70420E7E70520E5E70620E3E7C04676
:10E20000F0B544465F4656464D46F0B483B00CAC7C
:10E210002478002822D0002920D0002A1ED005888A
:10E220009D4200D1E1E045889D4200D1E8E085882B
:10E230009D4200D1E6E0C5889D4200D1E4E0058919
:10E240009D4200D1E2E045899D4200D1E0E0858910
:10E250009D4200D1DEE0C089984206D003B03CBCAC
:10E2600090469946A246AB46F0BD07200123834065
:10E270004842DBB2002C5DD103342040904200D9EB
:10E280001000042A00D9B6E01000DC430D78E4B297
:10E2900025400D70012800D1C4E04D7825404D7017
:10E2A000022800D1C2E08D7825408D70042800D06E
:10E2B000BAE0CD782C40CC7004248242CED0151A1E
:10E2C000AC46043DAD080135A946561EAD00A84632
:10E2D000361A022E19D91F023D001E041D432E437B
:10E2E0001F0637438346F8430025002682468B44A9
:10E2F000584647595046074058460136475104355D
:10E300004E45F5D34444C445A8D0DB4308190578ED
:10E31000DBB21D400570601C82429FD90818057849
:10E3200002341D400570A24298D90C19227813407E
:10E33000237093E703242040904200D91000042A60
:10E3400055D810000C781C430C70012866D04C780E
:10E350001C434C7002285FD08C781C438C700428BE
:10E360005ED1CC781C43CC700424824200D175E786
:10E37000151AAC46043DAD0801350195561EAD0099
:10E38000A846361A022E1BD91E021E43B246554617
:10E390001F042F4300251E063743BA460026A94610
:10E3A0000818574685592F430125AB46019DD9448E
:10E3B00087510436A945F4D34444C44500D14DE700
:10E3C0000D19287818432870601C824200D845E750
:10E3D0000818057802341D430570A24200D83DE7B5
:10E3E0000C1922781343237038E700203EE70024FD
:10E3F0000028BDD0A6E70024002800D15FE744E74D
:10E40000012033E7022031E703202FE704202DE726
:10E4100005202BE7062029E70224A6E70124A4E72C
:10E420000324A2E7012448E7032446E7022444E743
:10E43000002819D00388934218D0438893421BD0F8
:10E44000838893421AD0C388934219D00389934298
:10E4500018D04389934217D08389934216D0C38939
:10E460000020934214D070470020FCE7002319419C
:10E47000012308001840F6E70123F8E70223F6E736
:10E480000323F4E70423F2E70523F0E70623EEE78E
:10E490000723ECE730B50023002935D0D40702D597
:10E4A0000B8883800123940704D55C004D880419F0
:10E4B000A5800133540704D55C008D880419A5801C
:10E4C0000133140704D55C00CD880419A5800133FD
:10E4D000D40604D55C000D890419A5800133940687
:10E4E00004D55C004D890419A5800133540604D578
:10E4F0005C008D890419A5800133D21104D05A0023
:10E50000C989821891800133036030BDA022044B79
:10E51000D205D358034A125C0120D3409843704778
:10E5200004050000DC720200044BA0211A5C0123E8
:10E530009340034AC9058B507047C046DC72020005
:10E540000C050000044BA0211A5C01239340A1227A
:10E55000C905D2008B507047DC720200A022A123B3
:10E560008021D205DB008903D1508021C903D1501D
:10E5700080210904D15080214904D1507047C04600
:10E58000A0228021064BD2058903D1508021C903E6
:10E59000D15080210904D15080214904D1507047C5
:10E5A0000C050000084AA021105C0122824010B531
:10E5B0001400A120054BC905CB58C0009C43134053
:10E5C000034A0C508B5010BDDC72020004050000A1
:10E5D0000C05000010B51A4B1A68002A14D000224E
:10E5E00080211A60C2220123164C9200C9058B506B
:10E5F0006370A368002B07D01A6800205B68A260D4
:10E600009847A368002BF7D10F4B1A68002A15D042
:10E6100000221A60C223802202219B00D205D15021
:10E620000123084CA3702369002B07D01A6801202E
:10E630005B68226198472369002BF7D110BDC04663
:10E6400000010040342900200401004010B50028DA
:10E650000BD1064CA368002B07D01A6800205B681A
:10E66000A2609847A368002BF7D110BD3429002081
:10E6700030B583B06B46DD1D002328002B70FEF7FC
:10E6800069F8134C2378002B13D16360A3602361D6
:10E69000E360104B1B68DB0715D507F075FD0028FC
:10E6A00005D1A32380220121DB00D205D150012313
:10E6B0002370E36828780133E3600123A370FEF739
:10E6C00069F803B030BD0321002000F005F8E4E74D
:10E6D0003429002000E100E0F0B500281EDBFF2611
:10E6E0001A4B37009C4603238208C025C0B2034062
:10E6F000DB0089019F403140994092006244AD00A7
:10E700005459BC43214351511F23C02118401E3B83
:10E7100083400E4A490053501360F0BDFF250C4A58
:10E720002E00944603220F23C0B20240D20089017A
:10E730009640294091400340083B9B089B0063445E
:10E74000DC69B4432143D961DEE7C04600E100E063
:10E7500000ED00E070B54425184C0820665D002EE1
:10E7600000D070BD01234022FF215B42A35401323F
:10E77000A1540132A354236201326362A362E362B3
:10E7800023636363A363E363FC390238A354236008
:10E790006360A360E36023616361A361E361FFF7EA
:10E7A0009BFF074B80211E60C123064A9B00090680
:10E7B000D150012300206355D3E7C04648290020EB
:10E7C0007C61004000600040F0B5474680B4524C88
:10E7D0000825231820331E787F2E03D8280004BC78
:10E7E0009046F0BDCD78AC46002D36D02568013579
:10E7F00000D186E0042300269846731C9D006759CB
:10E80000013733D0B31C984525D99D00675901378E
:10E810002CD0F31C98451ED99D006759013725D08F
:10E82000331D984517D99D00675901371ED0731DB8
:10E83000984510D99D006759013717D0B31D9845E9
:10E8400009D99D006759013710D00736B04502D964
:10E85000E369013308D00425C0E72569013555D0A7
:10E86000082304269846C8E707231C256251624600
:10E8700027185EB220373E70002A02D1E3183C33DD
:10E8800018708B78002B14D10300A0254A78C1336F
:10E89000FF3392009B00ED055A51CB78002B14D129
:10E8A000A4193C340B7822789B0113432370002574
:10E8B00094E7A022D2059446E02502278300634412
:10E8C000ED005A59BA435A51E7E7144A0B78944677
:10E8D000A221B6006644C9007458114A00022240C1
:10E8E0007250F822520110400500C02218040300A3
:10E8F000280092027458134018432043705000259A
:10E900006CE7002522601D700026BAE7042522610D
:10E910001D702E002B00B1E7482900200060004048
:10E92000FFE0FCFF0023F0B5254C22182032D3561F
:10E93000032B18DDE3183C331B789B09032B33D0E2
:10E94000012B39D0C0218902A023DB059C46E0239E
:10E9500080006044DB00C4581A4A2240C250C258AA
:10E960000A43C250F0BDD8B20328FBD8164DA227E7
:10E97000AC46012698006044FF00C5593543C55197
:10E980001800654600274030800080B247510029BA
:10E99000E8D0127852B292001259002AE2D09E407A
:10E9A000C1239B00EE50DDE7A223A022DB00D205AD
:10E9B000D358C340DB07C5D480218902C4E7C046D1
:10E9C00048290020FFFFFCFF00600040F0B54D46E5
:10E9D0005F46564644460023F0B4C64A87B00393C8
:10E9E00013680025012B00D1DDE1C34B1A68012A11
:10E9F00000D1CCE1C14B1A68012A00D1BBE1C04B68
:10EA00001A68012A00D1AAE1BE4B1A68012A00D176
:10EA100099E12B071CD0BC4BA22798460323012663
:10EA200000249946FF002E420ED0B84AA3009A183F
:10EA3000D059D1594246D358002B05D04A46090C2B
:10EA4000C0041140C00E984701347600042CEAD16E
:10EA5000002D06DB07B03CBC90469946A246AB466B
:10EA6000F0BD00230493013B059341339846C02633
:10EA7000A54C4346E1564B1C2CD007220123C9B2BA
:10EA800008000A409340B043C70805AAD25D13426C
:10EA900020D0221820321278890952B29200A2584E
:10EAA0009146002A00D10EE1032900D10EE1A025F4
:10EAB000ED05AC4682009444E0226546D200AA5897
:10EAC00003ADEF5D9203920F3B4200D0D2E0032AE8
:10EAD00000D172E100274123E1564B1C37D00723B8
:10EAE0000125C9B20B409D4008002B00B043C2086D
:10EAF00005ADAD5C2B422AD02518AC462025A94691
:10EB0000CC4465462D7889096DB2AD0065590191F7
:10EB1000A946002D00D1FBE0032900D1FBE08500D0
:10EB2000AA46A025ED05AC46E025ED00E244AC4642
:10EB30005546614669588903890F8C4603A98A5C4A
:10EB4000134200D0A3E06346032B00D147E14223E8
:10EB5000E1564B1C36D007230125C9B20B409D401E
:10EB600008002B00B043C20805ADAD5C2B4229D094
:10EB70002518AC462025A946CC4465462D78890940
:10EB80006DB2AD0065590191A946002D00D1A3E0F9
:10EB9000032900D1A3E08500AA46A025ED05AC46D7
:10EBA000E025ED00E244AC465546614669588903CC
:10EBB000890F8C4603A98A5C134277D16346032BE5
:10EBC00000D146E14323E1564B1C36D007230125F3
:10EBD000C9B20B409D4008002B00B043C20805ADF0
:10EBE000AD5C2B4229D02518AC462025A946CC4443
:10EBF00065462D7889096DB2AD0065590191A94628
:10EC0000002D00D192E0032900D191E08500AA46B1
:10EC1000A025ED05AC46E025ED00E244AC465546A6
:10EC2000614669588903890F8C4603A98A5C13429F
:10EC300013D16346032B00D1ECE0002F00D109E78C
:10EC4000A223A022DB00D205D358039A934200D11D
:10EC500000E70393049B05930BE76346022BECD17B
:10EC6000019B032B00D118E14B46002BE5D0019905
:10EC7000C847E2E7022A00D02CE7032900D103E1CC
:10EC800000274B46002B00D125E7C84723E7634602
:10EC9000022B00D05BE7019B032B00D1F7E04B4632
:10ECA000002B00D153E70199C84750E76346022B78
:10ECB00088D1019B032B00D1ECE04B46002B81D087
:10ECC0000199C8477EE7032900D003E704AAD219B7
:10ECD00015781D431570EAE6032900D072E704A9F0
:10ECE0008C4694446146097819438A4661465546E4
:10ECF0000D7050E700610040046100400861004071
:10ED00000C6100407C610040482900200060004008
:10ED1000032900D01BE704A98C4694446146097876
:10ED200019438A46614655460D70F8E6032984D199
:10ED300004A98C4694446146097819438A46614681
:10ED400055460D7062E700221A6080231B061D43A2
:10ED5000A022A223D205DB00D358039359E6C12297
:10ED60004F499200895808220A4200D14CE60021FE
:10ED70001543196048E6C122494992008958042286
:10ED80000A4200D13BE600211543196037E6C12253
:10ED900043499200895802220A4200D12AE6002102
:10EDA0001543196026E6C1213D48890041580B42B0
:10EDB00000D11AE61560013517E6032900D05FE798
:10EDC00080229202E0236546DB00ED58354F2F404C
:10EDD0006546EF50EF583A43EA50012751E7019B4F
:10EDE000032B00D05BE780229202E0235146DB0038
:10EDF000C95801378B462B49FFB28C4659466546A8
:10EE000029408C4651466546CD50C9580A43514663
:10EE1000CA5044E7019B032B00D025E780229202D1
:10EE2000E0235146DB00C95801378B461D49FFB22C
:10EE30008C465946654629408C4651466546CD501C
:10EE4000C9580A435146CA504B46002B00D00EE722
:10EE5000F6E6019B032B00D02FE780229202E023ED
:10EE60005146DB00C95801378B460E49FFB28C462C
:10EE70005946654629408C4651466546CD50C9588D
:10EE80000A435146CA5018E7C02292029AE7C022AC
:10EE90009202AAE7C0229202E1E7C0229202BFE7F3
:10EEA00000600040FFFFFCFFF8B54F464646C0B487
:10EEB00005794A4EEC00631B9B00F318DB7E0700CC
:10EEC00091460820002B03D00CBC90469946F8BD13
:10EED0000868431C0CD00123A1228340A020D2004B
:10EEE000C005835003220B68C133FF339B001A50C7
:10EEF0004B685A1C06D0A0200022C133FF339B0070
:10EF0000C0051A5038688A69354BC250487D0B7D60
:10EF10003A680343334813500A683B6894463248C2
:10EF20004A681A50624631481A500B7D012B2DD089
:10EF30004A46631B9B00F01842600A69F2504B4638
:10EF4000002B12D08E22002338685200097F835094
:10EF5000386828328350C1233868254A9B00C25044
:10EF60003B68180B40B2FFF7B7FBA02304213A68B7
:10EF7000DB00D15000230122641BA4003419E37587
:10EF80002376A375E276A37600209DE78B685A1C52
:10EF900006D0A0200022C133FF339B00C0051A50C9
:10EFA000CB685A1C0ED001209840A1220300A0205B
:10EFB000D200C00583500322CB68C133FF339B00CE
:10EFC0001A50CB688A6838689446A122D2008350D0
:10EFD000A2236246DB00C250AAE7C0469029002067
:10EFE000240500006C050000140500000C0500005D
:10EFF00080000200F0B55F4656464D464446A023C9
:10F000000022F0B40168DB000779CA50334B83B0AB
:10F010009C46FB00DA1B920062445268002A0DD025
:10F02000C22204682E499200A150012102682D4C91
:10F03000D203D20E91400A008021625002682A4910
:10F04000A22655588A462949F6008B465158B046A3
:10F050000091A121C9008946515896595C460196F4
:10F0600001267642165154461651026848461650FB
:10F07000404616506A1C06D0A0220220C135FF353A
:10F08000AD00D205A850009C621C06D0A022022030
:10F09000C134FF34A400D205A050019A501C06D000
:10F0A000A0200224C132FF329200C00514504A1C35
:10F0B00006D0A0220220C131FF318900D20588503C
:10F0C0000022DB1B9B006344DA765A6003B03CBC31
:10F0D00090469946A246AB46F0BDC0469029002016
:10F0E0008402020000E100E00C05000014050000AD
:10F0F000F0B5564644465F464D46F0B4047983B0B9
:10F10000E3001B1B394C9B00A44663449C7D1126E5
:10F11000002C07D0300003B03CBC90469946A24674
:10F12000AB46F0BD99608E219C829A7503790122CD
:10F130009C46036849005C5003689A6063466246D7
:10F14000DB009B469B1A294A9B00904643449A68E1
:10F1500006689046745044469A8AA45C9A8A0132A2
:10F1600092B29A82224AB4505C680026002CD1D117
:10F170000027BA4601349E7DFF3401921F009A8A0F
:10F180001437B24218D2076802E09A8AA24202D02B
:10F190007A58002AF9D09A8AA242EFD052464546C0
:10F1A0007A509A8AAA5C91464D469A8A013292B266
:10F1B0009A82019ABD50E1E780233A885B009A4227
:10F1C00011D08E21026849005358002BFCD0012336
:10F1D0000026D3605B4662469F1A044BBF00DD19D0
:10F1E0000023AB7596E70F26F4E7C0469029002070
:10F1F0001C0500000279D3009B1A044A9B00D31817
:10F20000987D431E9841C0B27047C04690290020A7
:10F21000C12310B5614A9B00D35884B09B054FD5DC
:10F2200092235B00D15800294AD00021D15081217E
:10F23000E5338900FF33D150594B997E002901D124
:10F2400001315160022269460A7090215348C90079
:10F250004258425069460392DA7D68460A72DA687B
:10F26000196801920022DA751A765B6898478E2138
:10F270004A4A49005358002B0FD0494B9C8A987D2D
:10F2800084424FD200205050998A9868405C998AF5
:10F29000013189B29982434BD050A2233F4A5B008F
:10F2A000D15800290AD00021D1503D4B997E002928
:10F2B00001D001211160DA7D002A42D104B010BDD5
:10F2C000C123364A9B00D3585B07D0D5842149001F
:10F2D0005358002BCBD0324BD87D00283ED1505014
:10F2E000A321C90052585A7E8242C0D11A7E002AF8
:10F2F00042D19A7E002A02D10121284A5160812000
:10F30000C2222649800092008850002268460121CE
:10F31000DA755A7E01700272DA68196801925B68C8
:10F320009847A4E7002454500028B6D06A461470C9
:10F3300010729A689C75196801925B6868469847D4
:10F34000ABE7002268460121DA755A7E017002722D
:10F35000DA68196801925B689847AFE7002050505F
:10F36000A320C000597E1258D86842545A7ED87DD6
:10F370000132D2B25A76B6E7DA751A69D968DA601C
:10F3800000226C46587E1A765A760132207201911C
:10F390002270196868465B68984768E7002000405B
:10F3A000902900201C05000070B5804B05001B68EB
:10F3B0000024DB0701D4200070BD7D4E3378002B84
:10F3C00006D1172D00D9EEE07A4AAB00D3589F46FC
:10F3D0003470FFF7C3F8F4E7012301203370FFF71F
:10F3E000E1F8754B00221B6874489900C918FDF7B5
:10F3F0000FF90400DFE7012301203370FFF7D2F893
:10F400006D4B002219686D48FDF702F90400D2E740
:10F41000FFF7A4F80120FFF787F81422684B0024B7
:10F420001A70C8E70020FFF77FF80722644B00241A
:10F430001A70C0E7FFF792F80020FFF775F8012077
:10F44000FFF772F815225E4B00241A70B3E7002014
:10F45000FFF75CF8002800D19AE00020FFF772F86F
:10F4600008210322564B1A7077E00020FFF74EF870
:10F47000002800D186E00020FFF764F8282104224C
:10F48000F0E70020FFF742F8002800D185E00020D7
:10F49000FFF758F805224A4B48481A70464B00229D
:10F4A00019684900FDF7B4F8040084E70020FFF76D
:10F4B00079F80622424B1A70A2E7FFF761F80C2296
:10F4C0003F4B00241A7076E73E4E3000FDF700F9FE
:10F4D00004001120451B49D0002C47D1012D0DD02F
:10F4E000B7306421684306F0ABFF334B00221B6842
:10F4F000434330001900FDF78BF804000220FFF7AA
:10F5000013F858E7FFF72AF812222D4B00241A703F
:10F5100051E7FFF723F80020FFF706F81322284BE6
:10F5200000241A7047E7FFF72BF8254B00241D70C5
:10F5300041E7FFF713F80022214B00241A703AE745
:10F540000020FEF7E3FF002814D00020FEF7FAFFAA
:10F550002821022D25D01A4B1D70174B00221B6845
:10F5600016485943FDF754F8040024E70220FEF73B
:10F57000E9FF20E70020FEF7D7FF0421022DEAD1A2
:10F580000239E8E70020FEF7CFFF0421042269E7F3
:10F590000020FEF7C9FF022163E70020FEF7C4FF49
:10F5A00078E71639D7E7002405E7C046CC290020C4
:10F5B000D0290020E0720200D4290020AC290020CC
:10F5C000D8290020DC29002003000720032B00D9C4
:10F5D0007047012A13D0012917D0002908D0022929
:10F5E00019D15800C3180D48C3185A700020EFE70E
:10F5F0005800C3180948C3189A700020E8E7002291
:10F600000129E8D11A000E32D2B258000349C318BA
:10F610005A540020DCE70720DAE7C046FC29002026
:10F6200010B50388102B08D0112B05D1294A136877
:10F63000013B1360002B07D010BD264C2368002B24
:10F6400011D001332360F7E7012202210020FFF7E8
:10F65000BBFF00282BD0072829D01F4B1B68002B8D
:10F66000EAD09847E8E7012200210020FFF7ACFF2D
:10F67000002808D0072806D0174B1B68002B00D0A5
:10F6800098472368DDE7072202210120FFF79CFF4E
:10F69000002801D00728EFD1042202210020FFF723
:10F6A00093FF0028EDD00728E6D12368C9E7072299
:10F6B00002210120FFF788FF002801D00728CCD1C4
:10F6C0000A2200210020FFF77FFF0028B4D007287E
:10F6D000C3D1B1E70C2A0020082A002048DF704778
:10F6E00076DF70477ADF70477CDF7047A8DF7047AE
:10F6F00067DF7047002900D07047BFF34F8F034A80
:10F70000034BDA60BFF34F8FC046FDE70400FA05F4
:10F7100000ED00E0A123A0220221DB00D205D150A0
:10F720000022014B1A707047342B0020A022A22324
:10F730000121D205DB00D35802201B0F0B40012B07
:10F7400005D0A123DB00D050034BD15070470249B4
:10F75000505004395350F9E70C05000070B5114CB6
:10F76000236801332360104B1B78002B05D02068E1
:10F77000642106F0EBFE002905D02368013301D196
:10F780000023236070BDA02202310D00A120074B91
:10F79000D205D358C0009D430B4005491550535026
:10F7A000EBE7C046382B0020303200200405000073
:10F7B0000C05000070B50E4C0E00236801221900E4
:10F7C000914305002160002E09D103229343236059
:10F7D0006B68002B02D031002800984770BD0549A6
:10F7E0000320FCF729F90223226813432360EFE783
:10F7F000982A00208C73020010B5FCF73FFB10BD67
:10F80000A123A0220121D205DB0010B50548D1506B
:10F8100000220549FCF7FCFE002801D0FCF72EFB76
:10F8200010BDC046102A00203303000010B50400AC
:10F83000FEF71CFB200001F083FB10BD10B5037820
:10F8400084B004000E2B0AD81C4A9B00D3589F4654
:10F85000032001F0F3FA002801D0FCF70FFB04B0FD
:10F8600010BD80680028FAD0F7E7FEF7C1F80E282F
:10F87000F5D0082302009A43F1D0EEE70069002892
:10F88000EDD0EAE70E490320FCF7D6F8E7E7408819
:10F8900001F02AFD217A02000091638809490320C2
:10F8A000FCF7C2F9DBE7002303A90B70408805F0E1
:10F8B000C1F8D4E705F0C2F8D1E7C04640730200B2
:10F8C000AC730200E073020010B50378002B00D087
:10F8D00010BD054B3B211888FFF702FF0028F7D029
:10F8E000FCF7CCFAF4E7C0466A20002010B50328E4
:10F8F00007D10649FCF7A0F80220FFF755FD0028C4
:10F9000000D110BDFCF7BAFAFBE7C046287402002C
:10F91000F0B50F000C00134D83B04E1D2278290066
:10F9200003200134FCF7D0F8B442F7D13B78FA2B2E
:10F9300006D000223900684606F0FEFC03B0F0BD98
:10F9400009490320FCF778F8FEF7C8F90422074BB1
:10F950001A60FBF78BFD0122054B06489A65FBF701
:10F96000AFFCEBE74474020064740200982A0020A4
:10F9700044320020F5F6010010B51F4B02201A7822
:10F98000002A14D1A0211D4AC905885001221A70ED
:10F990001B4A1188002923D105211180A122A02111
:10F9A0000220D200C905885000221A7010BDA12281
:10F9B000A021D200C905885000221A70104A11886F
:10F9C000013989B2118011880029E5D000220D4942
:10F9D0000D48FCF71DFE0028E8D0FCF74FFAE5E7DC
:10F9E0000A4B012BF2D1002209490748FCF710FE0F
:10F9F0000028DBD0F1E7C046342B00200C050000C6
:10FA000068200020D7030000302A002015F70100ED
:10FA100033330000A022012110B50E4BD2050E4C4D
:10FA2000D1502378002B08D1A1210220C9005050C9
:10FA30000A4A1370013B237010BD0022084909488F
:10FA4000FCF7E6FD002801D12378F3E7FCF716FA6E
:10FA50002378EFE70C05000031320020342B002022
:10FA6000CD0C0000142B002010B5040084B001F070
:10FA7000B1FB200004F05CFF200001F057FB2000E8
:10FA8000FFF7CEFD2388112B00D1B6E033D9512BDF
:10FA900053D0552B00D1AEE03A2B00D171E02000BD
:10FAA00001F0EEF92388112B3DD0112B10D9512BE9
:10FAB00000D17CE0552B00D193E03A2B54D02000AC
:10FAC00001F034FB2100524806F0AAF904B010BD41
:10FAD000022B64D0102BF2D103204E49FBF7ACFF70
:10FAE0000720FFF761FC002801D0FCF7C7F9A288C6
:10FAF000494B1A80E3E7022B75D0102BCFD103209E
:10FB00004449FBF799FF0720FFF74EFC002801D07E
:10FB1000FCF7B4F9404BA28820001A8001F0B0F93C
:10FB20002388112BC1D103203C49FBF785FF00201E
:10FB3000FFF73AFC0028C2D020E0A379002BAED01A
:10FB4000A27B043A022AAAD8023B5A4253416A468F
:10FB500001331370C1235B009380A0886946FFF7CF
:10FB6000C5FD00289BD017E02D490420FBF764FF5A
:10FB7000A0881321FFF7B4FD0028A0D0FCF77EF980
:10FB80009DE727490420FBF757FFA0881321FFF7C3
:10FB9000A7FD002800D182E7FCF770F97FE7A08875
:10FBA0000021FFF7A5FD002800D188E7E6E7A3794B
:10FBB000002B00D183E7A27B043A022A00D97EE71A
:10FBC000023B5A4253416A4601331370C1235B0022
:10FBD0009380A0886946FFF789FD002800D16EE771
:10FBE000CCE71049C1E7A0880021FFF781FD00287C
:10FBF00000D154E7D0E70B49C4E703200749FBF7DE
:10FC00001BFF0020FFF7D0FB002800D147E7C3E728
:10FC1000A8330020A07402006A200020847402002F
:10FC2000B8740200DC740200F0B5144D83B02C6887
:10FC30000026670706D5A70707D511490320FBF75C
:10FC4000FBFE0A36300003B0F0BD012792B23C4300
:10FC50002C60009313000A0001000A48FEF748F8E0
:10FC6000041E03D12B681F432F60EBE702000649F7
:10FC70000320FBF729FF2600E4E7C046982A00206E
:10FC800000750200B020002028750200F8B5464635
:10FC90004F460B00C0B40C00070090461849020004
:10FCA0000320FBF763FF174D00262B685A0706D584
:10FCB0009A0709D514490320FBF7BEFE0A36300027
:10FCC0000CBC90469946F8BD012213432B60914627
:10FCD0004346A2B239000D48FEF766F8041E04D16F
:10FCE0004B462A6813432B60E9E7020008490320CA
:10FCF000FBF7EAFE4A462B68260093432B60DEE7BB
:10FD000044750200982A002068750200B020002087
:10FD100090750200064B80B210B50022188005498C
:10FD20000548FCF775FC002801D0FCF7A7F810BDCA
:10FD300068200020D7030000302A002010B50022E0
:10FD400004490548FCF764FC002801D0FCF796F84C
:10FD500010BDC04633030000102A002070B50020FB
:10FD60009AB0FBF747FE002801D0FCF787F8A749B7
:10FD70000320FBF761FE0023A54A05210020FCF7C4
:10FD800095FB002801D0FCF779F8A24A0021A2488F
:10FD9000FCF724FC002801D0FCF770F89F4A0021F2
:10FDA0009F48FCF71BFC002801D0FCF767F89D4A30
:10FDB00000219D48FCF712FC002801D0FCF75EF8FA
:10FDC0009A4A01219A48FCF709FC002801D0FCF767
:10FDD00055F8FEF7BFFC002801D0FCF74FF8954E10
:10FDE0000BAC04223100200006F0AFFC924A210047
:10FDF0001C20FEF7E9FC002801D0FCF73FF80121A8
:10FE00001C20FEF78FFDA023E0228C49DB05D200E9
:10FE1000995003218A4A03AD9950FD3A0139FF3ABE
:10FE20009950884A013999502800311D042206F062
:10FE30008CFC002348228449280006F0ABF90028F6
:10FE400001D0FCF71BF822000121002006F01EFA69
:10FE5000002801D0FCF712F8200006F02FFA002845
:10FE600001D0FCF70BF8794806F0E4F9002801D03E
:10FE7000FCF704F8764806F0E7F9002801D0FBF714
:10FE8000FDFF04F067FD002801D0FBF7F7FF052216
:10FE900000212000FBF7BCF90123812221782000FA
:10FEA0001943114030220A437F210A402270072261
:10FEB000022162700932A270E2781A430A43E270AA
:10FEC000227913430B43237104F0A6FD002801D0CF
:10FED000FBF7D4FF5F4804F085FD002801D0FBF755
:10FEE000CDFF0F2101222B785B4E8B431343102251
:10FEF0000B40134330002B7006F062FC310082B2DD
:10FF00002800FFF7F1FB002801D0FBF7B7FF08221C
:10FF100000212000FBF77CF95023238050336380BD
:10FF20000023A3809133FF332000E380FFF7DAFB47
:10FF3000002801D0FBF7A2FF3C2200212000FBF7A4
:10FF400067F9022306222370013BA3702382434BEF
:10FF5000E27000211A3228006361FBF759F901238E
:10FF6000EB7096235B002B6100232A006B6100215C
:10FF7000009320003A4B00F08BFE002801D0FBF7E5
:10FF80007DFF384B210038480B9305F063FF0028B4
:10FF900001D0FBF773FF1C2200212000FBF738F98A
:10FFA000A02292026260F02200231203A2600322C8
:10FFB0000B93E38123742D4B200063612C4B227340
:10FFC000A36101F077F8002801D0FBF757FF032069
:10FFD00000F034FF002801D0FBF750FF0022212160
:10FFE0002448FCF715FB002801D0FBF747FF224906
:10FFF0000320FBF721FDFBF77DFE0028FBD1FFF777
:020000022000DC
:100000006DFB0028F7D0FBF739FFF4E7AC75020071
:100010009C2A002015FA01008473020001F80100F7
:100020008873020079F90100187602005DF701007B
:100030001C7602007C7302002DF701000F03000004
:10004000040700000C050000502A002069FA010096
:100050002DF801003DF80100F07502006420002039
:10006000EDF8010011F90100A8330020C9F80100E2
:10007000F9F701003C2B0020F875020071DF704792
:1000800072DF704779DF70477DDF704765DF70474B
:10009000F0B55F4656464D464446F0B485B09A46A4
:1000A0000EAB80CB06001B8800919B463B880193DA
:1000B0000388002B63D00023994602ABDD1C3B0074
:1000C00000241700984603E033880134A3422CDD56
:1000D0007368A1009C460422614403A806F035FB26
:1000E0000022290003A8FFF7D1FF002829D12B788F
:1000F000BB42E9D14B46002B2AD043461A88D3197C
:100100005B453EDC5244290003A8FFF7BFFF0028EF
:1001100017D143462A781B880134D31842461380EE
:10012000012399463388A342D2DC4B464746002B35
:1001300025D03B88019A013B9B1A9BB20C20FF2BD8
:100140001AD905B03CBC90469946A246AB46F0BDD4
:1001500043461B88DA1902325A4512DC4246013303
:1001600069469BB2138052460978D15443461A8897
:10017000013292B21A80C5E7110052465354002052
:10018000DFE70C20DDE7C046F0B5444656464D4655
:100190005F46F0B4138814009846002313802D3373
:1001A000C25C87B005000E000023002A00D0EFE0FB
:1001B000AA78002A00D018E1E978002900D0DCE014
:1001C0006A68002A15D0D91C414500D9D8E002211F
:1001D0001278F1542388083101339BB22380F15403
:1001E000238852B201339BB22380F2542388013317
:1001F00023802B89002B00D02AE12B8A002B00D0F2
:1002000041E12B8B002B00D058E12B6A002B48D00A
:1002100022880C20911D414500D9B2E0198805388B
:100220008B46052900D8ACE0B54F5F44BFB2B94654
:10023000B44FBC46B94500D8A3E05F88BA46052F45
:1002400000D89EE0AE4F6946B946D1444F46CF81B3
:10025000CF89674500D894E0AB4FBB4504D0BA4581
:1002600002D0D34500D98CE00521B15422880D314C
:10027000013292B22280B1542288013292B222809D
:100280001988B2181170090A51702288023292B28C
:1002900022805988B3181970090A597023880233CB
:1002A00023806F6A002F2CD0BA882188131D5B1819
:1002B0000C20434565D8931CFE2B62D80332725440
:1002C000FF22238801339BB22380F2542388013319
:1002D0009BB223803A88F3181A70120A5A70238846
:1002E00002339BB22380BA88002A0AD0B968053845
:1002F000002946D0F01806F028FA2288BB88D318C7
:1003000023802C23EB5C002B00D0FFE02B78002017
:10031000002B36D02A880720012A32D02288901C50
:1003200040452DD8012B04D16B7802339B1898459A
:1003300026D34746023FBA1A97B202AB301804A937
:100340001F81FFF7A1FE00281BD12B78022B00D1C3
:1003500025E1012B00D1CCE03B000821FE2B0FD87A
:1003600022885D1CB5542288013292B22280B15499
:10037000228801329B18238003E0DA1C424555D9BC
:100380000C2007B03CBC90469946A246AB46F0BD57
:1003900043460C20082BF4D904A8FFF76FFE002871
:1003A000EFD1082223880921F25423881332013324
:1003B0009BB22380F25402AB9C462088153A013050
:1003C00080B220806144301806F0BFF9238802AA69
:1003D0000633127A9BB22380002A00D00122F25405
:1003E000238801339BB22380E2E604330C2043458B
:1003F000C7D804A8FFF746FE0028C2D103222388ED
:10040000F2542388163201339BB22380F25423889E
:1004100002AA01339BB212892380F3181A70120AC0
:100420005A70238802339BB22380C5E60222F2541D
:100430002388013A01339BB22380F254238801338D
:100440009BB22380F154238801339BB22380B7E60B
:100450002F00434608370193009433000222022103
:100460003800FFF715FE002800D08AE743460094C5
:1004700001931022330006213800FFF709FE0028FF
:1004800000D07EE7B9E62F00434610370193009471
:100490003300022203213800FFF7FAFD002800D0C4
:1004A0006FE7434600940193102233000721380080
:1004B000FFF7EEFD002800D063E7A2E62F004346D9
:1004C0001837019300943300022214213800FFF7FB
:1004D000DFFD002800D054E743460094019310222A
:1004E000330015213800FFF7D3FD002800D048E77E
:1004F0008BE66B789F4200D32FE73B002DE7C04689
:100500007FF3FFFF7DF30000FFFF0000AF6A002FC5
:1005100043D0BB880233FE2B00D931E7002291463D
:10052000163292461632934620885246013333548F
:10053000238801339BB22380F254238801339BB27A
:1005400023803A88F3181A70120A5A7020880230F1
:1005500080B22080BA88002A0AD0B96800291CD04D
:10056000301806F0F2F82088BB88C01880B22080CE
:100570004B460133DBB299465B46EB5C4B4500D8FA
:10058000C4E64B465F00AB6A4F449C46BF006744DD
:10059000BB880233FE2BC8D9F2E60720F1E602AB96
:1005A0001B8909219F4200D3D8E63B00D5E6C0460F
:1005B000F0B54E46574645461F23E0B496B002AA12
:1005C00004000E00D38100282ED0C078430724D524
:1005D000002302AA93812D33E35C002B00D074E149
:1005E000A3780EAF002B00D0ACE100230021032242
:1005F00006AD02276F54591C02339BB289B2013FEA
:100600006F54E85493B202AA93816268002A39D0E9
:10061000D91C1F2929D90C2000E0072016B01CBCCA
:1006200090469946A246F0BD002502AB9881002E67
:1006300016D0F378002BF0D102AA94460E2363441F
:100640001A000EA93000FFF79FFD0028E6D102AB8B
:100650009B7B0EAA02A9097B2800FFF711FDDDE7AD
:1006600002ABDE8100220023F4E7002010560222B4
:100670000A27EA545A1C02339BB292B2AF54E85490
:1006800002AB99812389002B00D0C4E0238A002B80
:1006900000D0DEE0238B002B00D0F8E0226A002A95
:1006A0003ED002AB9B890C20991D1F29B6D810881B
:1006B00082460528B1D9B14F5744BFB2B846B04FB2
:1006C000BC46B845A9D95788B946052FA5D9AB4F1F
:1006D0006846B846C8444746C781C78967459CD91C
:1006E000A84FBA4504D0B94502D0CA4500D994E70D
:1006F00005201227E854581C80B22F54981C80B251
:1007000002AFB8811788281807703F0A4770043372
:1007100052889BB2EB181A70120A5A7002AB998178
:10072000676A002F34D0BB88991C02AB9B899A1C46
:1007300050188046914642460C201F2A00D96DE78A
:10074000FE2900D96AE70131E954591C89B2F33016
:1007500068544A466946CA81CA8902A98A81398889
:10076000AA180433117098B2090A02AB517098812B
:10077000BA88002A0CD0B968002900D14DE72818A2
:1007800005F0E3FF02AB9A89BB88D31802AA9381D4
:100790002C23E15C002900D0F6E02378002B00D167
:1007A00045E722880720012A00D137E702AA92896B
:1007B000901C1F2800D92EE7012B05D163789B18C8
:1007C00002331F2B00D926E71D230EAF9A1A93B2CE
:1007D0002818390098463B80FFF756FC002800D0C7
:1007E0001CE72378022B00D119E1012B00D11CE179
:1007F000434608203B804346FE2B00D90BE702AA64
:100800009289591CA954511C02329B1889B202AA20
:10081000685493810BE71F232700984608370193FC
:1008200005AB009302222B0002213800FFF730FCB9
:10083000002800D0F2E64346019305AB0093102256
:100840002B0006213800FFF723FC002800D0E5E646
:100850001CE71F23270098461037019305AB009330
:1008600002222B0003213800FFF712FC002800D0E1
:10087000D4E64346019305AB009310222B000721D9
:100880003800FFF705FC002800D0C7E602E71F2369
:10089000270098461837019305AB009302222B00DE
:1008A00014213800FFF7F4FB002800D0B6E64346D9
:1008B000019305AB009310222B0015213800FFF7A0
:1008C000E7FB002800D0A9E6E8E60EAF3800FFF706
:1008D000D5FB002800D0A1E6082202AB9B8906AD1B
:1008E000EA545A1C023398B21B2102AB9C4692B2C6
:1008F000A9541631988106226144281805F025FF75
:1009000002AB9B8902A99A1D92B28A81397800298B
:1009100000D001210733A9549BB202AA9381A27887
:10092000002A0AD1E078002800D16EE6DA1C19000E
:100930001F2A00D85DE60C2070E604330C201F2B24
:1009400000D96BE63800FFF79DFB002800D065E674
:100950000322192102AB9B8906ADEA545A1C92B2BC
:10096000A9549A1C398892B2AA1811700433090A42
:1009700051709BB202AA9381D4E7C0467FF3FFFF78
:100980007DF30000FFFF0000A76A002F00D144E6BE
:10099000BB880233FE2B00D93DE602AA90890022D3
:1009A000904616329146163292464A4601332B54EF
:1009B000431C9BB2EA54831C9BB202AA93813A88DF
:1009C000EB181A700430120A5A7080B202AB988188
:1009D000BA88002A0FD0B968002900D11DE628186E
:1009E00005F0B3FE02AB9889BB88C01880B202AB99
:1009F00098815346E15C43460133DBB298468B4213
:100A000000D3CAE643465F00A36A47449C46BF0042
:100A10006744BB880233FE2BC7D90C20FEE53B8818
:100A20000930984500D3E7E6E2E66378984500D2BE
:100A3000DEE63B800820DFE673DF7047F0B5894CC7
:100A400087B00700072200212000FAF7E1FB864D5E
:100A50006B78002B39D1AB78844E002B49D1637869
:100A6000002B72D1A378002B6FD1E378002B6CD1CF
:100A70002379002B69D16379002B66D1A3795A1EA3
:100A80009341DBB2022F58D037D9032F3CD0042F2B
:100A90005DD12A790423002A4DD03370744B1B6832
:100AA000002B3AD10022734B1A701822002168469D
:100AB000FAF7AEFB00236A46137013723378042BE7
:100AC0006DD86D4A9B00D3589F46684E3378012BF2
